S00E0000536B7953796E632E73333712
S214006000C00A0020996E00003F6D02003F6D02003E
S214006010798202003F6D02003F6D02003F6D020074
S2140060203F6D02003F6D02003F6D02003F6D0200B3
S2140060303F6D0200742A03003D6C02003F6D0200B3
S2140060403F6D02003F6D02003F6D0200617300006D
S2140060503F6D02003F6D02003F6D02003F6D020083
S2140060603F6D02003F6D02003F6D02003F6D020073
S214006070A1C900003F6D02003F6D0200816E000066
S214006080D96C02003F6D02003F6D020081ED0000FA
S2140060903F6D0200517900003F6D02003F6D020027
S2140060A03F6D0200717A00004D7A00003F6D0200DD
S2140060B03F6D0200D55002003F6D0200C95A020033
S2140060C0E3240300DF240300BD520200EF24030094
S2140060D0E7240300A15A0200EB240300095B020038
S2140060E0393502000D370200755B02003F6D020075
S2140060F03F6D02003F6D02003F6D02003F6D0200E3
S2140061003F6D02003F6D02003F6D02003F6D0200D2
S2140061103F6D02003F6D02003F6D02003F6D0200C2
S2140061203F6D02003F6D02003F6D02003F6D0200B2
S2140061303F6D02003F6D02003F6D02003F6D0200A2
S214006140013800D0FCE770472DE9F04F2DED088BA5
S2140061508DB09DED1E7B09EE903ADDE920430A9353
S214006160229B09EE100A8A460792069351EC170BFB
S21400617053EC172BB0EE478AF0EE678A20F0A4F9AE
S21400618080B14FF0FF3251EC180BCF4B20F0C4F922
S21400619040B94FF0FF326FF4801351EC180B20F02B
S2140061A09DF998B1069B514622930A9B19EE100A58
S2140061B0CDE9204319EE903A079A8DED1E8B0DB06F
S2140061C0BDEC088BBDE8F04F00F0A2B9002200231A
S2140061D051EC180B20F082F9002800F0448118EEEC
S2140061E0903A18EE108A03F10049069BC9F30A504C
S2140061F013F48063A0F2FF3008BF06240B931FF051
S21400620091FEA1A3D3E900231FF0F6FEA0A3D3E9D5
S21400621000231FF03BFDC9F313050F4645F07F51E1
S21400622006460022A94B404641F440111FF02CFDC3
S21400623099A3D3E900231FF0DFFE02460B46304643
S21400624039461FF023FD20F071F983461FF06AFEE1
S21400625093A3D3E9002306460F461FF0CDFE002287
S2140062609B4B1FF013FD20F061F98FA3D3E90023A9
S2140062700546394630461FF0BFFE064628460F46FE
S2140062801FF050FE8AA3D3E900231FF0B5FE024696
S2140062900B46304639461FF0F7FC02460B460646CC
S2140062A00F461FF0A9FE324641EC1A0B3B4630461D
S2140062B039461FF0EBFC002241EC1B0B854B51ECE2
S2140062C01A0B1FF0C3FF0022834B1FF0DFFC0246B1
S2140062D00B4651EC1A0B1FF0B9FF00227F4B1FF044
S2140062E0D5FC02460B4651EC1A0B1FF0AFFF3246A8
S2140062F041EC1A0B3B4600204FF080411FF0C4FCD7
S21400630002460B4651EC1A0B1FF0C0FC02460B4629
S21400631051EC1B0B1FF09AFF05F2FF350022704B65
S2140063201FF0B4FC00222B051FF066FE42464B46CB
S21400633006460F4620F0F0F8002840F09780CDE99A
S21400634008670BF16303C72B069B34BF042505259E
S214006350190521D558A3D3E900234046494620F025
S214006360D1F8002800F0BE8055A3D3E900234046AC
S214006370494620F0B3F8002800F0B48000255C45BC
S214006380CCBFA4EB0B000024AB46069BC8BF00F1B5
S214006390FF3443F4806306930A9B9D4238BF5E1B1E
S2140063A0069B28BF002613F0020702D0002D18BF58
S2140063B00026BBF1000F07D0DDE90823404649461A
S2140063C01FF044FF804689460022002351EC180B3C
S2140063D020F084F810B109F100439946069B514617
S2140063E023F40063CDE9036319EE100A19EE903A20
S2140063F0CDE90089079A029400F08AF875B3069BE7
S214006400024613F0200F00F1010619EE903A14BF71
S21400641045206520514619EE104AA0470523002264
S21400642005930A238BEAEB70CDE90232A0EBEB7002
S2140064304FEADB73013D0193009019EE903A324625
S214006440514619EE100A049523F085F837B1079BDC
S214006450C51A079B58190A9BAB424CD80DB0BDEC29
S214006460088BBDE8F08F59EC188BBEE6002230464C
S2140064703946194B1FF0EAFE0BF1FF3BCDE9080148
S2140064805FE700BFAFF30080FB799F501344D33F14
S214006490B3C8608B288AC63F61436F63A787D23F25
S2140064A071A379094F930A401655B5BBB16B0240EC
S2140064B0EF39FAFE422EE63F2D431CEBE2361A3F3A
S2140064C00000000080842E41FFFFEF7F0000F83FB1
S2140064D00000E03F00002C40000024400000184070
S2140064E00000F03F002C3FF457AF0B9B002B3FF40F
S2140064F053AF013C50E7024619EE903A5146202031
S21400650019EE104AA0470135A3E700BF00000000BF
S2140065102DE9F04F2DED088B8FB0DDE920AB08EEAE
S214006520100A0F4608EE902A09EE103ADDE92253CB
S2140065305246049350465B465946249E1FF0C4FFBD
S214006540A0B9049B2396229303232193B84B209350
S21400655018EE902A19EE103A394618EE100A0FB0C7
S214006560BDEC088BBDE8F04F22F02DBF4FF0FF3298
S2140065706FF48013504659461FF0B0FF30B1049BAD
S2140065802396229304232193AA4BE0E74FF0FF3291
S21400659050465946A84B1FF0BFFF70B1A74A06F0F9
S2140065A00403002B08BF0322A54B1CBF134604227E
S2140065B004992396CDE92121C9E7504698A3D3E94B
S2140065C0002359461FF0A8FF38B997A3D3E9002344
S2140065D0504659461FF082FF98B1049B18EE902A49
S2140065E0CDE92253394619EE103A18EE100ACDE9D5
S2140065F020AB24960FB0BDEC088BBDE8F04FFFF73C
S214006600A3BD00220023504659461FF067FF00280E
S21400661000F081805B465246002000211FF034FBCC
S214006620012382468B46059316F4806F08BF062525
S2140066303021A94606ABA5F12002B9F1090FA5EB5A
S214006640090406D909F1FF394A4503F8011BF4D1BC
S2140066502024594650461FF069FF7A4B054603EB47
S214006660C90393ED007BB0EE47AAF0EE67AA1FF0D1
S21400667059FC02460B46504659461FF005FB53ECA4
S2140066801A2B1FF0B9FC02460B4643EC1B2B1FF0DF
S21400669075FF80461FF036FC02460B4651EC1B0B7E
S2140066A01FF0F2FA02460B4643EC1B2B0022664B09
S2140066B01FF032FF88B308F1010840461FF022FCA5
S2140066C002460B4651EC1A0B1FF012FF10B14FF0AA
S2140066D000080135B9F1000F51D128461FF022FC01
S2140066E002460B46504659461FF0CEFA0022564B3D
S2140066F0804689461FF0F2FE30B1002240464946E9
S214006700514B1FF009FF10B1E80700D5013506AB65
S2140067100A2223445AE0059086E7002251EC1B0B20
S214006720494B1FF0DBFE0028D4D1B8F1000F02D091
S21400673018F0010FCED008F10108CBE7B8FBF1F056
S21400674001FB1082B8F1090F02F1300209F1FF399E
S21400675004F1010403F8012B28D83021A14406AA2D
S214006760202C11D04C4504F1010321D104F138024C
S2140067700DEB02042E2204F8202C1C46C7E70A2143
S21400678006AB2344202CD9D106F00303012B06AB1D
S21400679039D1049A002A36D0059A12B916F00C0F91
S2140067A002D0049A013A0492302214E08046E9E7C7
S2140067B0A1541C46D4E795FBF2F102FB1155303587
S2140067C003F8015B01340D460029DDD0202CF2D100
S2140067D0DAE71A5501340499A14214D9202CF8D1CD
S2140067E0049A0093CDE9014219EE103A18EE902A69
S2140067F0394618EE100A039622F0E5FD0FB0BDEC00
S214006800088BBDE8F08F202CEAD0059AF2B12D2136
S21400681004F138026A4402F8201C0134E0E700BFA5
S2140068200000000065CDCD410000000065CDCDC163
S2140068305334030057340300FFFFEF7F4E3403004A
S2140068404A340300603403000000E03F710704D5BB
S21400685004F138022B216A44DDE73207C0D504F183
S214006860380220216A44D6E7002370B5404C05461E
S2140068708AB0E36318B1008823600EF007FA3D483B
S2140068802BF093F93C4E3D4B304633603C4B7360E7
S21400689025F0C6FF0021304618F092FD32A3D3E95A
S2140068A00023A062C4E9062325F0C5FFD4E9062329
S2140068B0194310434FF0FF33C4E90601CDE9000148
S2140068C04FF0FF32A06A2BF0D9F902224FF0FF31C9
S2140068D0A06A2BF0D8F901200DF0E6FF4FF4007304
S2140068E000222849A06A2BF026FAB0F5007F38D19E
S2140068F000239422CDE9073309933C23CDE90332E4
S21400690005939623A06A03A9069318F075FE35B37F
S214006910287C0EF081FB0546F0B9A06A2BF0ECFA55
S2140069200EF022FB0DF0A2FF20B14FF48070002184
S2140069300BF04AFD0DF0AAFF20B14FF400600021D5
S2140069400BF042FD25F03BFF012018F08DFD0E4AAE
S2140069500E49A06A25F062FF28460AB070BDFF20E7
S214006960D7E70725F8E700BF0DD501552000000042
S21400697000100020690345ECE4250020394701009B
S214006980D8250020D8230020C5C7020005C802006D
S21400699010B5054C237833B9044B13B1044800E016
S2140069A000BF0123237010BD50120020000000001D
S2140069B0A086030008B5034B1BB10349034800E05B
S2140069C000BF08BD0000000054120020A08603008F
S2140069D0A3F5803A704700BF174B002B08BF134B38
S2140069E09D46FFF7F5FF00218B460F461348144AD5
S2140069F0121A2BF0C9FD0E4B002B00D098470D4BFA
S214006A00002B00D098470020002104000D000D4800
S214006A10002802D00C4800E000BF1FF0CBFF20008B
S214006A20290020F0FFF81FF0B1FF00BF00000800AB
S214006A300000000000000000C00A0020900F0020A8
S214006A4068340020000000000000000000231C4AFC
S214006A5010B513601B4A1C4913601C4A1C4813607F
S214006A6000220A601B490A601B4A13701B4A1380E7
S214006A701B4A13801B4A137006F0D8FF08F03AF939
S214006A8020F0E5FA04460121022005F07FF82046B2
S214006A90154C20F0E0FA07F00FFB22F022FE2068EB
S214006AA022F069FF206822F0CBFF07F00FFD07F009
S214006AB043FD22F01AFEBDE8104007F099BD00BF66
S214006AC0781200206C120020701200207412002031
S214006AD0502603007C120020302B0020AE2A002017
S214006AE0AC2A0020312B0020D40A00202DE9F74FD5
S214006AF0344B1B78012B61D1334CDFF8DCA022F03D
S214006B00ECFD324D204607F0E9FADFF8D08050461B
S214006B1007F028FB2E4F2F4E284607F07DFB22F06D
S214006B20E0FDD8F8000022F026FF3A463146D8F8B5
S214006B30000008F099F8DFF8A890DFF8A8B0D8F8B9
S214006B400000DFF8A48022F07BFF07F093FC4A46A3
S214006B504146584607F01AFD4FF47A70B9F80030EF
S214006B60DAF800100193B8F80030B1FBF0F1D7ED79
S214006B70000A96ED000A2A68206800939BF8003009
S214006B8007F060FD9BF800304FF47A7001EE103A83
S214006B90B9F80030DAF800100093B1FBF0F1B8F85D
S214006BA000302A68B8EE411AD7ED000A96ED000AC2
S214006BB0206806F0BFFF0023024A137003B0BDE84A
S214006BC0F08F00BF312B00207812002074120020B6
S214006BD07C120020701200206C120020D40A0020C4
S214006BE0AC2A0020302B0020AE2A00207FB5036898
S214006BF01F4A23F47F4323F00703934234D1052230
S214006C00002116201B4B10F0A5FF00B1FEE70DF18A
S214006C10070102A810F0CAFF014600B1FEE79DF882
S214006C200D3008228DF810309DF80C3018208DF8A5
S214006C3011309DF80B308DF81230FF238DF813308D
S214006C40FE238DF814309DF80A308DF815309DF827
S214006C5009308DF816309DF808308DF8173004ABE3
S214006C6010F078FF00B1FEE707B05DF804FB00BF48
S214006C70A00001005526030010B5234C01F0E0F9F2
S214006C8001F002FC236F23F0070343F0030323679E
S214006C9020F0C8F91D4B00209B6A9B075EBF0122AF
S214006CA01B4B9A62D4F8203123F0030343F002030F
S214006CB0C4F82031D4F8243123F0070343F002034C
S214006CC0C4F82431D4F8403123F0030343F0010321
S214006CD0C4F84031D4F8603123F0030343F00103D5
S214006CE0C4F86031D4F8403223F0030343F00103C4
S214006CF0C4F84032D4F8003223F0070343F001030F
S214006D00C4F8003210BD00BF0080005000C0005024
S214006D1000E0005008B502F0A7FA01280ED1114B8A
S214006D2004205A6E4FF480230F49520358BF0F4A6F
S214006D304B6601F51041086258BF536604F090FA9E
S214006D4004F032FA04F052FA21F0E7F8FFF794FF65
S214006D5004F03AFA00F0CCFA00F09CFEBDE80840D9
S214006D6004F0E2BE008000500090005000A00050EA
S214006D7008B53A20012101F087F8BDE8084001482F
S214006D8000F04ABBC00A002030B5184D95B00DACD7
S214006D900FCD0FC495E80700292384E807000021DB
S214006DA0134A1024CDE90223124B2246CDE90431C2
S214006DB04FF4807309A806932BF0E6FB4FF4A0214E
S214006DC00D4B0DAACDE907130F238DF824300B4B7E
S214006DD007A90A9320230B93094B0A48009302AB9A
S214006DE08DF8254004F066FC15B030BD582A030027
S214006DF0000006500005000424000650322B002038
S214006E0080120020DC120020831E012B10B512D841
S214006E10012910D8114B04221B6905210020C3F359
S214006E20401301F0A5FE0E4B1B681868A8B1BDE81C
S214006E301040436A18478B1E012B0CD801280CD82B
S214006E40BDE810400022054B05211B691046C3F320
S214006E50401301F08DBE0129E5D910BD00C00350D6
S214006E60E00A002008B50449044804F021FFBDE804
S214006E700840FFF789BF00BFD80A0020D4120020C0
S214006E80014821F0AFB900BFDC120020014B1A6A9E
S214006E9018681047DC12002008B500F02DF8124BD9
S214006EA012498B4212D30020114B12498B4218D341
S214006EB0FFF792FD186850F82240586840F82240C4
S214006EC0013298688242F5D30C33EAE70022F8E7ED
S214006ED01C6844F8220001325C68A242F8D30833EA
S214006EE0E4E70022F8E700BFA8860300B4860300A4
S214006EF0B4860300B48603004FF400414FF0FF3021
S214006F00124B134A10B59A60D3F8882042F47002E8
S214006F10C3F888200F4A916601F1884101F50052B6
S214006F2010664FF6DF7050660220C3F8D000BFF33D
S214006F304F8FBFF36F8F08244FF440330648C0F8D6
S214006F408041D36004600B6110BD00BF00ED00E01F
S214006F50006000000090005000E100E0014B18685F
S214006F60704700BFE80A0020084B1B6F03F00703BA
S214006F70022B04D0032B05D0012B05D0FEE7044BD3
S214006F8018687047034BFBE70348704700800050C3
S214006F90E80A0020EC0A0020002D310108B5FFF7B2
S214006FA0E3FF054B1B6FC3F303330133B0FBF3F072
S214006FB0024B186008BD00BF00800050E40A0020A5
S214006FC00048704700B4C404014B1868704700BFFF
S214006FD0EC0A0020054B1860054B1B6F03F00703F7
S214006FE0032B01D1FFF7DABF704700BFEC0A002081
S214006FF00080005000487047002D3101014B186892
S214007000704700BFF00A0020BFF34F8F0549064BBC
S214007010CA6802F4E0621343CB60BFF34F8F00BF31
S214007020FDE700BF00ED00E00400FA0500239B6AC0
S214007030B3F5C04F03D21968064A914203D0002325
S214007040037083607047012202709A689B694260F1
S214007050F7E700BF07B0CD5E73B55E4B04461A78FF
S2140070601AB102221A7002B070BDCDE900220028C3
S214007070F9D001261E701FF0F1FF574D574B1860D0
S2140070801BF040FB2B785BB900F004FD40B9544878
S2140070900823544A5449006817F0C6FE00B92E70FB
S2140070A0524B5A6E62619B6E514AA3614FF4004385
S2140070B0936603F188435968E1614E499960196EF9
S2140070C02160596E6160D3F87011A160196CE1609F
S2140070D0596C21614849086C1864496C596401214F
S2140070E051664FF4005191661A6E56044BD54349CB
S2140070F0CA68D407FCD45B6E5A0449D5404AD36BA1
S21400710013F0430FFBD13F4B1A68531C46D04FF485
S214007110001393403C4A136604233B4C23664FF40B
S214007120806323661FF02FFE01300ED01FF02BFE6B
S21400713040F20113984208D04FF4804323664FF480
S214007140004323661023C4F8703110232E4C684683
S21400715023664FF4005323664FF0804323664FF4B4
S214007160804301A963661FF0F3FD009B2366019B25
S21400717063662B78002B3FF476AF1A4B1A682266AC
S2140071805B6863666FE72149CA68D007FCD4B2E73C
S2140071901F4AD36B13F0430FFBD1B4E71D4B1B788C
S2140071A0002BB9D14FF48072114B5A661A4A5268B6
S2140071B01AB94FF40011144A11664FF400725A6659
S2140071C0164B5B68002BA7D14FF480020E4B1A6655
S2140071D0A2E700BF542B0020522B002028130020CB
S2140071E0FC0A0020201300200071080000800050D8
S2140071F00090005055CEAC0000C000540000044083
S2140072000000024CF40A00200090004400000450E5
S2140072100000025C532B002000C005500000065002
S214007220F8B5284D04462F78012F02D001232B7085
S214007230F8BD0028FCD01FF0A6FD0130224E0AD073
S2140072401FF0A1FD40F20113984204D01F4A776652
S214007250D368DF07FCD44FF400531D49B366CA6BEE
S21400726012F04302FBD121681A4B19666168596611
S214007270A168C3F87011E168196421695964E1696D
S214007280C80748BF9A60144B1A6801320DD1134ADA
S214007290127852B912494968C90748BF1A60114A9C
S2140072A05268D20744BF01221A6062690E4B5A66C2
S2140072B0A2699A661BF02EFA0C4B18681FF0D4FED3
S2140072C00023B4E7542B0020009000400000044048
S2140072D00000024C00800044F40A0020532B0020DB
S2140072E000C0055000000650008000502813002003
S2140072F070B50024A36AB3F5C04F22D21A68124BA9
S2140073009A421ED1114E337813F0FD0517D110485E
S214007310FFF7A2FE08214FF480330E4A0E48C2F84B
S2140073208011C36011600D4A1361AB6ADB69984730
S21400733004460748FFF774FF0CB901233370204654
S21400734070BD4FF48174FAE707B0CD5E532B002072
S2140073500013002000E100E000A00044009000447C
S21400736013B51F4B1B7803B9FEE700231D4CCDE970
S21400737000336A4608231C49206817F055FDF0B90B
S2140073801A4AD2F84031D2F840211F2B4FF00103A1
S21400739010D9203A9340019A1343019308236A4672
S2140073A01149206817F0F6FC4FF00053104A1A6097
S2140073B0FFF72AFE9340009A13430093EEE70D4B27
S2140073C09842F1D1094AD2F84031D2F840211F2B19
S2140073D04FF0010302D9203A9340DEE79340ECE7F2
S2140073E0542B0020FC0A0020007108000080004496
S2140073F00B020FF00BE000F005490A681318054869
S21400740083428CBF4FF0FF320B601046704700BFC0
S214007410F80A0020008000202DE9FF410368374A63
S2140074200446934204D0364A934251D12F2000E0BE
S2140074302E20012100F028FD01230A2261792079FF
S21400744001F096FB01230A22E179A07901F090FB76
S2140074500A2601272B4D4FF0300842F210032279FE
S214007460617908FB025207FA01F1D150642005F059
S214007470C9FA41F210012379627908FB035307FA2F
S21400748002F264205A5005F0BDFA013EE3D12068AE
S2140074901A4B98421FD10323C5F89034627923799A
S2140074A043EA0243C5F89434E279A37943EA0243F7
S2140074B0C5F8983440F20113ADF80030E368694629
S2140074C00293A3680193237C8DF80C3001F0D0FB67
S2140074D004B0BDE8F0810A4B9842EBD10323C5F80F
S2140074E0A0346279237943EA0243C5F8A434E279EA
S2140074F0A37943EA0243C5F8A834DBE70000015A43
S2140075000080065000C0035038B5054601F0EEFC7A
S214007510044C012801D1013C00D138BD284601F0B9
S214007520C9FBF6E7E19304002DE9F04F9A46564B67
S21400753085B01B7806460F461546DDF83C909DF84C
S21400754044B0DDF85080002B00F08D80072A00F252
S2140075508C800E9B002B00F08880B9F1000F00F0A5
S2140075608480129BB3F5006F7FDC012802D1109B4C
S214007570002B7AD0454B03EB05131B7B002B76D0F4
S214007580434C1022002168462AF0FEFF04EB451407
S2140075901022002F59D1394620462AF0F5FF43F233
S2140075A010036380BBF1000F03D1E37843F00303BD
S2140075B0E370374A0E9B02EB451CCCE90193129B05
S2140075C06901013BC3F30A009DF84C30012E03F01D
S2140075D003034FEA836343EA001E53582D48CDF851
S2140075E000A000EA03004EEA0003535041D11323E3
S2140075F00CF1100ECCF80C309CE80F008EE80F0053
S2140076006FF00301DCF81C20109B61F39F02012F32
S214007610CCF81C20CCF8143003D1CCF81890CCF859
S21400762004300027194A290102EB051342F80180AD
S214007630159A28465A60694622469F605E7301F096
S214007640F7FC384605B0BDE8F08F002120462AF04A
S2140076509BFF4FF444736380BBF1000FA9D1E3781E
S21400766043F03003A4E70C48ECE70C48EAE70C4884
S214007670E8E7B8F1000FD4D19CF8023068F30413A1
S2140076808CF80230CDE700BF552B00202C130020CD
S214007690AC1300200F80FFF3028000F0018000F0A2
S2140076A0078000F038B5124B05461B78DBB1E0B119
S2140076B01FF0D4FC0F4A00231146147B54B92B60EC
S2140076C001251A0101EB03131D738C501FF0CCFC2F
S2140076D0204638BD0133082B02F11002EDD11FF011
S2140076E0C3FC0548F5E70548F3E70548F1E700BFA2
S2140076F0552B00202C130020048000F0028000F0A0
S214007700018000F013B51FF0A9FC00230B4A147B80
S2140077107CB90133082B02F11002F8D1019001F078
S21400772029FC074B01981C701FF09EFC204602B0F7
S21400773010BD1FF099FC0348F9E700BF2C1300208A
S214007740552B0020058000F00D4B10B51B78044625
S21400775093B1072812D81FF081FC0A4B03EB0413E1
S2140077601A7B2AB100241C731FF07EFC204610BD35
S2140077701FF07AFC0448FAE70448F8E70448F6E7FE
S214007780552B00202C130020068000F0028000F00D
S214007790018000F0154B13B51868002301908DF892
S2140077A004301FF05BFC124B1C7824B11FF05CFC0D
S2140077B0104802B010BD01221A701FF055FC0E4B87
S2140077C001A81C731C7783F82C4083F83C4083F890
S2140077D04C4083F85C4083F86C4083F87C40082378
S2140077E08DF8073001F0F2FB2046E2E7C42A0300DA
S2140077F0552B0020038000F02C1300200A4A08B501
S21400780012785AB107280BD8084A02EB00131B7BE4
S21400781043B1002101F0CCFB002008BD0448FCE782
S2140078200448FAE70448F8E7552B00202C130020FC
S214007830028000F0018000F0078000F00A4A08B5D8
S21400784012785AB107280BD8084A02EB00131B7BA4
S21400785043B1012101F0ACFB002008BD0448FCE761
S2140078600448FAE70448F8E7552B00202C130020BC
S214007870028000F0018000F0078000F00A4A08B598
S214007880127852B107280AD8084A02EB00131B7B6D
S2140078903BB101F01BFC002008BD0548FCE705488D
S2140078A0FAE70548F8E700BF552B00202C13002008
S2140078B0028000F0018000F0078000F00D4B1B787E
S2140078C093B1072812D889B10B4B03EB00131B7B2F
S2140078D073B10A4B1A6D012303FA00F010401ABF69
S2140078E000200B70087070470548704705487047C1
S2140078F005487047552B00202C130020000004502C
S214007900028000F0018000F0078000F00B4A10B5FE
S21400791012780C4662B107280CD859B1084A02EB17
S21400792000131B7B43B101F0E3FB2070002010BD69
S2140079300448FCE70448FAE70448F8E7552B00201B
S2140079402C130020028000F0018000F0078000F079
S214007950204B2DE9F0471F6D5A6D1F4C174010D570
S2140079604FF000411D4A1165D868C0F3042003019A
S214007970E35804EB00125BB3BDE8F0470021526801
S214007980184701260025DFF85480DFF85490374268
S21400799017D02368C8F850609BB1A168284601310B
S2140079A06268A1609847637B012B0AD148B909EB4E
S2140079B045131A7B60F341021A731A7F60F3410283
S2140079C01A770135082D4FEA460604F11004DED179
S2140079D0BDE8F087000004502C130020002004505F
S2140079E0AC13002070B5044601250B4E04B970BDDB
S2140079F094FAA4F0B0FA80F005FA00F306EB001251
S214007A0024EA03045368002BF0D0117B11B191686F
S214007A109847EBE79847E9E7AC14002008B519202B
S214007A2000F0ECFE28B14FF00072074BC3F880213F
S214007A301A601A2000F0E2FE28B14FF08062024B76
S214007A40C3F880211A6008BD00E100E0074BD3F8B8
S214007A502404D3F8202403F50053104000F05530DA
S214007A6020F05020C3F82004FFF7BCBF00C003502E
S214007A70074BD3F82404D3F8202403F50053104012
S214007A8000F0AA3020F0A020C3F82004FFF7AABF19
S214007A9000C00350024B1968024B186817F0A4B8D0
S214007AA0000B0020FC0A002037B5920004460D4665
S214007AB001922AF0B5FD431C0BD060B9294620463A
S214007AC0019A2AF02AFD0028044808BF002003B0C7
S214007AD030BD0348FBE70348F9E700BF10E000F0BD
S214007AE021E000F024E000F010B504462AF0A0FDE6
S214007AF0431C10D088B901F0BFFB234620F00300DA
S214007B002044984201D1002010BD53F8042B0132C6
S214007B10F7D00348F8E70348F6E70348F4E700BF62
S214007B200EE000F021E000F024E000F008B51FF0C1
S214007B308EFA014B186008BDEC1C0020014B18683B
S214007B401FF089BAEC1C0020044BD3F88420D20620
S214007B50FBD4D3F88400C0F3811070470040005077
S214007B6038B5104B0546D3F820310C4603F0030316
S214007B70022B0BD0032B0DD0012B0FD1FFF7EEF904
S214007B80052305B1286004B1236038BDFFF71CFA51
S214007B900323F6E7FFF72EFA0223F2E7012300207D
S214007BA0EFE700BF0080005073B50D4600210E4B76
S214007BB00191D3F88041064604F00304012C09D055
S214007BC0022C0CD00C460EB1019B336005B12C6024
S214007BD002B070BD01A8FFF7C3FF0F24F3E7FFF75D
S214007BE009FA0190EFE700BF0080005038B5184B47
S214007BF00546D3F824010C4600F00700062805D8F1
S214007C00DFE800F0230B131B1F0F17000023184696
S214007C1005B1286004B1236038BDFFF79FF905233E
S214007C20F6E7FFF79BF90623F2E7FFF7CDF9032304
S214007C30EEE7FFF7C9F90423EAE7FFF7DBF90223CB
S214007C40E6E71FF07DF80723E2E70123E0E700BF41
S214007C500080005038B5104B0546D3F840310C462E
S214007C6003F00303022B0BD0032B0DD0012B0FD1F7
S214007C701FF068F8092305B1286004B1236038BDF9
S214007C80FFF7BCF90823F6E71FF05FF80B23F2E7CF
S214007C9001230020EFE700BF0080005038B5144BEA
S214007CA00546D3F800020C4600F00700042804D866
S214007CB0DFE800F01B0A0E1216000023184605B176
S214007CC0286004B1236038BD1FF03CF80923F6E7AE
S214007CD0FFF794F90823F2E71FF037F80B23EEE7D7
S214007CE0FFF75CF90E23800AE9E70123E7E700BF08
S214007CF00080005038B5104B0546D3F840320C468D
S214007D0003F00303022B0BD0032B0DD0012B0FD156
S214007D101FF018F8092305B1286004B1236038BDA8
S214007D20FFF76CF90823F6E71FF00FF80B23F2E7CE
S214007D3000231846EFE700BF0080005038B5104B10
S214007D400546D3F860310C4603F00303022B0BD034
S214007D50032B0DD0012B0FD11EF0F4FF092305B124
S214007D60286004B1236038BDFFF748F90823F6E71A
S214007D701EF0EBFF0B23F2E701230020EFE700BF26
S214007D800080005010B40D4C0B46D4F8204204F08E
S214007D900304012C0AD0022C0CD008B1002101608B
S214007DA00BB100221A605DF8044B70475DF8044B77
S214007DB0FFF7D6BE5DF8044BFFF74CBF00800050BF
S214007DC038B50C4605461FF042F9064B9A6A82EA19
S214007DD0040101EA050454409C62BDE838401FF0E7
S214007DE03AB900BF00C00050B0F5207F1FD009D8B8
S214007DF0B0F5007F15D003D868B1B0F5C07F0AD0C3
S214007E0000200CE0B0F5607FFAD10B4BD3F8800071
S214007E10C0F3011003E0084B186FC0F303300130C5
S214007E207047054BD3F89000C0F30460F7E7024BA9
S214007E30186FC0F38020F2E7008000504FF4003245
S214007E400E4B014610B500209A66FFF7CDFF41F6AF
S214007E50713248430A490B4B88428CBF4FF480105E
S214007E600020DC69DA639A6822F4401202439A60C2
S214007E70E20344BF0022DA6310BD00BF009000504A
S214007E80005A620200000350420910B510D0012AC1
S214007E9010D00B4B0B4C022A18BF234600F01F00D5
S214007EA051B103F58053012202FA00F0186010BDAC
S214007EB01346F3E7044BF1E703F50053F3E700BF7F
S214007EC068800050608200506480005008B58020B2
S214007ED01EF0E0FF034B98429EBF4FF48032024BE9
S214007EE01A6708BD005A620200A000501FB50023A2
S214007EF0B0F5807F019377D028D8382800F094809A
S214007F000BD82438092810D809280ED8DFE800F046
S214007F10676767670D0D620D377D52285FD008D8FA
S214007F203D283BD03E2800F08480019805B05DF8DF
S214007F3004FB8028F9D1414B1B6F03F00703013B7C
S214007F40032BF2D8DFE803F044413F6CB0F5D06F66
S214007F505BD019D8B0F5A06F66D00AD8B0F5806FA0
S214007F603DD0B0F5906FE0D1002001A9FFF73EFEAE
S214007F70DBE7B0F5B06F2DD0B0F5C06FD5D10020DF
S214007F8001A9FFF767FED0E7B0F5006FECD00AD87E
S214007F90B0F5E06F4DD0B0F5F06FC6D1002001A966
S214007FA0FFF7CCFEC1E7B0F5086FBED1234BD3F880
S214007FB0003103F00303022B2CD0032B2ED0012B11
S214007FC030D1FFF701F8032300E005230193ACE767
S214007FD00223FBE7002001A9FFF7E6FDA5E7002046
S214007FE001A9FFF7BDFDA0E702934FF0E0231B6950
S214007FF05B0705D5FEF7D2FF0C230393039BE5E74B
S21400800003A902A8FFF726FEF8E7002001A9FFF75C
S21400801045FE8AE7FEF7F2FF0823D7E71EF090FE3C
S2140080200723D3E70123D1E7002001A9FFF7AAFE23
S2140080307BE7002001A9FFF75DFE76E70080005091
S2140080404FF40022034B5A66012203F580439A62DE
S214008050704700BF0090005008B5FFF747FF08289C
S21400806011D00938012811D84FF40012094B4FF6E9
S214008070FF705A6603F5D8335B6A13F0010F18BF1A
S2140080804FF4FA7008BD044B1888FBE74FF6FF70F4
S214008090F8E700BF00900050440D002070B504467D
S2140080A08020FFF723FF032800F082804FF4002291
S2140080B0444B02215A6645F60E03434AC2F8803006
S2140080C0424B9962012103F580539962936DD9035F
S2140080D0FCD4D4E900131B0543EA0163E17B94F862
S2140080E022500B43217B94F8236043EA0143617BD3
S2140080F043EA0133A17B43EA811313619169D4E912
S21400810004031B0643EA806301F000410B43A17E93
S214008110E07E0B43217E43EA0143617E43EA01236E
S2140081209361E369126A002B0CBF0021082122F03C
S2140081300D0242EA030242EA8002234B42EA0102AF
S2140081401A6294F820204FEA421232D1986A94F8C4
S214008150211020F0330042EA0112024342F00102ED
S2140081609A621B4A996D32EA0101FBD10222174935
S2140081708A621A659A6D5200FCD41869A26820F4C7
S214008180700040EA02504FF0004218610F4B9A61AF
S2140081901DB9022203F580539A6216B901220D4BCF
S2140081A09A6294F824301BB1074B0B4AC3F8802020
S2140081B070BD996A21F0330131430A4342EA450211
S2140081C0EEE700BF0090005000C0005000D0005006
S2140081D00300014000E00050F1A7FFFF1E4B13B55F
S2140081E0996A9A6D12F4803F18BF01241B4A18BF83
S2140081F09462022494629B6DDB0303D5164A936D4A
S2140082009C07FCD50222154B134C1A65A36D5B0028
S214008210FCD4134BA26993F9003022F47F02034486
S214008220000222F47F4280B283F30803104340EA40
S2140082300340A06102200191FFF7C2FDA36D0199E2
S21400824013F4803F05D0012002B0BDE81040FFF7D0
S214008250B7BD02B010BD00BF00C0005000D0005037
S214008260562B0020014B93F900007047562B002038
S21400827001221548154B816A9A62826D02F003024C
S214008280032AFAD102229A621A650F4B9A6D52009F
S214008290FCD40F4A986D32EA0000FBD101220B4B4A
S2140082A01A65A3F580539A6D9007FCD49A6D9207D1
S2140082B0FCD50222054B1A65034A936D9B07FCD535
S2140082C00320FFF77DBD00BF00C0005000D0005067
S2140082D003000100F0B5D0E901434FF480061A4AC6
S2140082E04178057856664FF4D156022702F5B83223
S2140082F05662164E4F2977604FF0010728BF4F2170
S21400830006F5805677601669F603FCD441EA052127
S21400831051611B01417B43EA04230B43017B43EA83
S21400832041039360C37B817B1B0143EA4113417C7D
S2140083300B43017C43EA41035360837C13B16FF423
S214008340D1535362F0BD00BF0090005000100250A1
S214008350014B1880704700BF420D00204FF40012FA
S21400836008B5184B5A660223174A5360936813F4ED
S2140083708033FBD1012822D1FEF726FE134B98420C
S21400838015D003F5122303F5F863984213D0104B6B
S21400839000EB8002400AB3FBF0F0520A0A4BDA62A6
S2140083A0012218635A620022074B5A6008BD45F640
S2140083B07A10084AF2E745F61A00074AEEE75362D3
S2140083C0F1E700BF009000500040025000F0490264
S2140083D064666666D8B80500BBCF0500B0F5207F9A
S2140083E010B50C4642D008D8B0F5007F33D003D87D
S2140083F088B1B0F5C07F0ED010BDB0F5607FFBD160
S2140084001F4B013CD3F8801021F0300141EA0414E0
S214008410C3F88040F0E71EF035FD1EF0FEFD4FF479
S2140084208031184A164B1167196F013C21F47041D0
S21400843041EA04341C67FEF7B1FD0446FFF784FBEF
S214008440C0F1020120461EF0E2FD00F02DF8BDE866
S2140084501040FFF73BBD0A4B013CD3F8901021F0CB
S214008460F85141EA0464C3F89040C5E7044B013C68
S214008470196F21F4806141EA84241C67BCE700BFC1
S214008480008000500090005008B50121022000F046
S21400849073FA1EF0F7FC1EF0C0FD4FF48032014B5D
S2140084A01A6708BD0090005008B54FF4C0701EF063
S2140084B0F1FCBDE80840044988428CBF0221012136
S2140084C04FF42070FFF78ABF80F0FA02B0F5807F85
S2140084D070B50C4600F0F88029D8382800F04B819B
S2140084E010D82438092816D8092814D8DFE810F040
S2140084F0DC00DC00DC00DC0013001300CD00130001
S21400850047003301522800F0CF8005D83D2851D0CF
S2140085103E2800F0418170BD8028FCD18B1E052BC3
S21400852000F2B080DFE803F0AB99AE69AEA8B0F514
S214008530D06F00F0108132D8B0F5A06F00F01B812C
S21400854016D8B0F5806F00F0AF80B0F5906FE2D12E
S214008550023C052C8CBF0021974B984A98BF195DAA
S214008560D2F8243123F007030B43C2F82431D2E7B4
S214008570B0F5B06F00F08980B0F5C06FCBD1083C85
S214008580032C8CBF00218E4B8C4A98BF195DD2F805
S214008590403123F003030B43C2F84031BBE7B0F58C
S2140085A0006FD5D016D8B0F5E06F00F0F580B0F5C6
S2140085B0F06FB0D1083C032C8CBF0021814B7F4A62
S2140085C098BF195DD2F8603123F003030B43C2F85D
S2140085D06031A0E7B0F5086F9DD1CC1E052C8CBF8E
S2140085E00021794B754A98BF195DD2F8003123F007
S2140085F003030B43C2F800318DE700250226012154
S214008600022000F0B9F91EF03DFC1EF006FD4FF406
S21400861080316E4B694A1967136F23F007033343A3
S2140086201367FEF7BBFC0646FFF78EFAC0F10201A1
S21400863030461EF0ECFC0121002000F0DDF9FFF7CB
S21400864033FFFFF743FC002D7FF465AF032C7FF468
S21400865062AF01225E4B9A625DE74FF400225B4BED
S2140086600E465A66012203F540539D6A03F5805371
S214008670C5F340059A62C2E700250426BFE7002539
S2140086800126BCE700252E46B9E7022C03D0A4F14C
S2140086900F0044424441494BD3F8801121F00301B6
S2140086A00C43C3F8804136E7023C032C8CBF002104
S2140086B0484B424A98BF195DD2F8203123F0030395
S2140086C00B43C2F8203126E7A1F10804082C3FF638
S2140086D022AF01A353F824F0FD860000FD860000BB
S2140086E017850000FD8600002B8700001785000018
S2140086F01785000017850000FD8600004FF48032C5
S2140087002E4B3549586E03F580535A660B6A43F074
S21400871001030B62C1035CBF304B5A664FF0E02288
S214008720136923F004031361F5E64FF48032234BFC
S2140087302949586E03F580535A660B6A23F00103E5
S2140087400B62C3035CBF254B5A664FF0E0221369E9
S21400875043F00403E7E7083C062C8CBF0021204BBF
S214008760164A98BF195DD2F8003223F007030B4370
S214008770C2F80032CFE60F2C0CD0102C14BF00210C
S21400878002210E4AD2F8203223F003030B43C2F82C
S2140087902032C0E60121F4E7083C032C8CBF002100
S2140087A0104B064A98BF195DD2F8403223F00303F7
S2140087B00B43C2F84032AEE6F42A030000800050B5
S2140087C0F02A0300F02A0300012B0300009000505B
S2140087D000E00050EC2A030000C0075000A0005044
S2140087E0FA2A0300F02A0300034B5868C0F3080077
S2140087F0003818BF0120704700ED00E0054B420925
S21400880053F8223000F01F0023FA00F0C04300F0B7
S2140088100100704700E100E0194B10B51B6873B308
S214008820184A5268012A2AD0174A8020C2F8003116
S214008830FFF75CFB05281FD14FF4C070FFF7D4FA92
S2140088400128044604D102214FF4C070FFF7C6FD8C
S21400885007220E4B1A610122A3F580535A60094A7B
S2140088601369DB07FCD5012C09D12146BDE8104071
S2140088704FF4C070FFF7B2BD0122054B5A6010BD21
S214008880A01D002000C001500080005000E00150F4
S21400889000D0015000224FF40031074B1A60074AFF
S2140088A0516602F598325268012A02BF044AD2F88D
S2140088B000211A60704700BFA01D002000900050E5
S2140088C000800050044A4178536F23F4407343EA13
S2140088D001235367704700BF0040005010B50446A0
S2140088E008B1FFF7D7FF0E4A136943F0040313617C
S2140088F003F0FCFB1EF0BBFB1EF0A9FB29F0A0FE5C
S2140089001EF0A9FB1EF0B4FB03F012FC1CB1BDE880
S2140089101040FFF781BFBDE81040FEF73FBB00BF29
S21400892000ED00E010B5044608B1FFF7B3FF0C4AAF
S214008930136943F00403136103F0D8FB1EF087FBB2
S21400894029F07EFE1EF087FB03F0F2FB1CB1BDE8AB
S2140089501040FFF761BFBDE81040FEF71FBB00BF29
S21400896000ED00E0034A0179D36E23F030030B4399
S214008970D366704700400050F8B504461C4BD3F849
S2140089808420D106FBD4D3F88430C3F381139C42F1
S2140089902CD0FEF7E9FA012C064602D121461EF03D
S2140089A036FB1EF054FB4FF00072124B07465A6619
S2140089B020461EF062FB4FF480630D4D621E93400E
S2140089C02B676B6E9A0103D4D5F884309B060AD5C4
S2140089D038461EF040FB022C08D13046BDE8F84071
S2140089E000211EF014BBD5F88430EAE7F8BD00BFBE
S2140089F0004000500060005007B518B90191FEF71E
S214008A00B3FA0199064B1B7843B1064B984205D83A
S214008A10012003B05DF804EBFFF7AEBF0220F8E7D5
S214008A20572B0020005A62020278034B01210020D7
S214008A301A70FFF7E1BF00BF572B00204FF000422F
S214008A4038B5264B26495A6601224A604AF6CD3189
S214008A5003F50B235D6C1964154030BB9968C90794
S214008A600BD4002401221F4B5A6015B11E4B1F4A1F
S214008A701A6429F01DF9204638BD1A498A601C4A36
S214008A80D96ACC0705D4904201D10724EAE7013021
S214008A90F6E79042E5D1F8E70132DC6A14F0080404
S214008AA006D08A42F8D10724DFE700221049F4E70F
S214008AB08A42F8D020220B4B0B495A620122A3F5BA
S214008AC080539A6023460A4A486A800603D4934233
S214008AD0E9D00133F8E79342C7D1E4E700900050AD
S214008AE00050095000600950004009503254FFFF02
S214008AF040420F004FF0004238B5194B194C5A66E9
S214008B00012203F50C235A604AF6CD33656C2364C4
S214008B104378154093401343134AD363A36882787F
S214008B2023F0740343EA0213C278002A14BF042217
S214008B3000221343A3600279837943EA0223236168
S214008B404279C37943EA022363610078FFF776FF30
S214008B500DB1064B236429F0ABF8012038BD00BFE9
S214008B600090005000400950004000503254FFFF73
S214008B70F8B504460D461F4616464AB101238B40FB
S214008B803021194A01FB0022FFB141F21001535077
S214008B9004EB4403072D4FF00F014FEA031317D8D9
S214008BA0A80006FA00F28140104818441EF066FA43
S214008BB056B9012130230C4801FA05F503FB0400E1
S214008BC077B141F21003C550F8BD42F21001DEE75E
S214008BD0A5F10800800006FA00F281400448E4E7A8
S214008BE042F21003EFE700BF00C0035004C003507A
S214008BF00CC00350F8B505460E4614465AB38268B4
S214008C0003F0030722F4407282601EF020FAAA687E
S214008C1082EA072303F440735340AB601EF01BFA4E
S214008C2036B9104B9D4217D12E201EF033F906465A
S214008C30AB680D4BD85D60430DD06FEAC4040444A6
S214008C40A319B3FBF0F3AA68013B920702D5002BE9
S214008C5008BF0123AB61F8BD044B9D42E8D12F202D
S214008C60E3E700BF0000015A072B03000080065010
S214008C7038B500230E4A036400F50053DA634A78D9
S214008C8004460D4600F108037AB903F58053022224
S214008C901A602046D5E901122B7BFFF7ABFF204672
S214008CA02978BDE838401EF0FAB903F50053EEE720
S214008CB0FFFF1F00884B2DE9F043984222D0874BD8
S214008CC0984240F00581864B402505264FF0000867
S214008CD04FF0030C996800F50054C26B12F4C06F95
S214008CE016D0970510D5FD225A7009221A70002258
S214008CF0026493F90110012900D15A7093F901001A
S214008D00BDE8F083774BDFE75605EED5FE22EBE7AE
S214008D101F78082F00F2D880DFE817F009001F0040
S214008D2041004C006900740096009E00CD004C88FF
S214008D300A88E5060AD5120A02F0060242F0F00298
S214008D40012119704263C1600120D9E702F0FE02DA
S214008D50A10748BF42F00102F2E7170607D58021B7
S214008D6000F50052D1634FF608721A8062E0520690
S214008D70EAD54A88E563D70604D502221A700B782E
S214008D804363E1E7920765D507221A701B7901EB6A
S214008D90C3010B89012BD7D10823C360D4E717067C
S214008DA0DDD45206D0D54A88E563970752D583F8B6
S214008DB000C092E74C880A88E50643BF120A02F014
S214008DC0060242F0F00202F0FE02640709D51C79A2
S214008DD042F0010201EBC4010989012904BF082100
S214008DE0C160042119700123C3604263ACE7170613
S214008DF0B5D45706A8D54A88E56352072AD5072270
S214008E001A70A1E71A795F8801EBC20EBEF80890C7
S214008E10B94511D80132D2B21A714F88A3F8028030
S214008E2017F0040FC3D1FF0702D4012A7FF655AF0F
S214008E3008221A700223B0E7DEF80420791C598055
S214008E40D25D42630622DBE7170688D457067FF515
S214008E507BAFE5631E7040E794067FF575AF456A05
S214008E60214C46691A793440B4F5003F04BF466A7F
S214008E704FF4005601EBC20100F500540A8908BF02
S214008E80E6632026E6635C88A24281BF4968661CCA
S214008E905E800D5559888A42CAD90424012AC460C6
S214008EA004D9013A914201D10822C2601A78092AEF
S214008EB03FF41DAF48E7D2057FF546AF4FF480710B
S214008EC000F50052D16310E74FF609321A800EE71C
S214008ED06FF0030014E700BF0000015A0080065040
S214008EE0B01D0020A41D0020200002001C4B10B462
S214008EF0984207D01B4B98422ED06FF003005DF8C7
S214008F00044B7047184B0269D20744BF2022C26048
S214008F104A88940702D50C89002CEED0520702D559
S214008F200A8A002AE9D04FF480721A6000229960FB
S214008F301A71C023C3604369DB050FD4202200F5F5
S214008F400053DA63094A5DF8044BDA63036C43F4B2
S214008F50FC630364FFF7AEBE054BD4E7436AEAE75B
S214008F600000015A00800650A41D0020FFFF1F00CD
S214008F70B01D00204FF400120B4B10B5C3F8802034
S214008F80BFF34F8FBFF36F8F0024FF22074B21469E
S214008F905C6520209A625C60FEF776FF2146BDE89D
S214008FA010402120FEF770BF00E100E000000450F2
S214008FB0044A054B002918BF1346012202FA00F0A6
S214008FC018607047402004504010045010B501212E
S214008FD004462020FEF758FF01212120FEF754FF0B
S214008FE00122114B5A60227812069A606178A278A4
S214008FF042EA01429A61FF229A6200229A631A6448
S2140090004FF000425A654FF0FF324FF4001103F55F
S21400901000531A65054AC2F88011E3781B01DBB2DB
S21400902082F81533116010BD0000045000E100E026
S2140090302DE9F04101250C46C3B2DFF888E0D1F8EF
S21400904000809D408F7ACB7A94F80DC0097BCEF8CD
S21400905050500EF5005E4EF820804FF0300E184E41
S2140090601B050EFB006043EA074343EA415322F028
S2140090700302C0F860C0C36502671DF0EFFF736DA2
S2140090802B437365237A13B1336C2B433364637AB3
S21400909013B1B36B2B43B3632279A37943EA02433C
S2140090A0084A93616179E37943EA014306498B6193
S2140090B0034B55639D64BDE8F0411DF0D5BF00BF6E
S2140090C000000450002004500010045010B5012485
S2140090D0C0B284401DF0C2FF044B5A6D22EA04025F
S2140090E05A659C62BDE810401DF0BEBF00000450EB
S2140090F010B50124C0B284401DF0B0FF074BDA6AF9
S214009100224209D15B6B34EA03030CBF012400241E
S2140091101DF0AAFF204610BD0024F9E70000045009
S2140091204FF40032054B9A6641F6713203F51C3354
S214009130DA63012203F50053DA60704700900050AE
S21400914041F671320121064BDA6303F50052D16015
S2140091500022DA634FF40032A3F518339A6670479C
S21400916000000350CB784A7810B55B010C7843EAD0
S21400917082030A79234343EA02130C22424302F194
S214009180B0421363012C02BF8A78024B43F82020BA
S21400919010BD00BFE880035008B54FF0B0435A68D2
S2140091A002B960B15B680BB11DF0D6FF4FF0B0415D
S2140091B030B10120074B58601DF0CEFFC86008BDD7
S2140091C01DF0CAFF0223CB601DF0C6FF0122024B32
S2140091D05A60F4E700100058002000584FF0B043E3
S2140091E05B6870B50BB11DF0B7FF0121104B4578D9
S2140091F0596083780679002BC37814BF02240024B4
S214009200002B14BF042200224379DB0043EA061336
S2140092102B43234313434FF0B0429360054B5960F2
S2140092200378002B14BF0B460223D36070BD00BF2B
S21400923000200058001000584FF48032064B5A6643
S21400924003F5E6235B69C3F38512827003F03F02E1
S2140092501B0B42700370704700900050014B986CD7
S214009260D96C70470080E00F024B1868C0F30740C7
S214009270704700BF0080E00F0120034B9B680A3355
S21400928003F01F03984070470080E00F70B5054656
S21400929016461C4621B94FF420701DF0FBFD014612
S2140092A0402C1BD003D8DCB1202C1BD070BD602C0A
S2140092B0FCD1042303FB06F2560806EB4113B3FB6E
S2140092C0F2F3094A203B02EAC303AA6822F06002CE
S2140092D0AA60AA681443AC60EB61E7E70623E9E7F7
S2140092E01023E7E70823E5E7F8FF7F00012200F5F3
S2140092F0805310B55A6040F6AA6341F205024361F6
S21400930000230E498360C365C26000F50052036106
S214009310C361C36491640A498365884202D0094CDC
S214009320A04207D18842036502D0064B984201D17D
S214009330002343650123536010BD00BFFFFF0100FB
S21400934000C005500000065070B50D46FFF7CEFF72
S214009350012300F580567360AB7C04461BB183681E
S21400936043F080438360EB7C5BB1354A2B7D9442AF
S21400937045D1A2F51032C2F88C31E36D43F080037C
S214009380E3652A8A6B7B20461343EA891343E3602E
S2140093902B7BD5E90112FFF779FF6B7D1BB1A36824
S2140093A043F48033A360AB7D1BB1A36843F4004352
S2140093B0A360EB7D2A7E1B07120502F4E00203F091
S2140093C0E0431343A365697E1D4A8B1E012B1D4B8C
S2140093D01FD894421BD002F5804294420CBF012253
S2140093E04FF0FF3203EB4213022041F21C620329C6
S2140093F0985020D10423F3652B78636170BD124A20
S214009400944204BFA2F52032C2F89C31B5E7002290
S214009410E8E794420DD00C4A94420CBF01224FF06C
S214009420FF3203EB4213022042F21C6201299850DD
S214009430DFE70022F5E7042204F50053DA65DBE7F0
S21400944000C0055000C003500000065038B50D4659
S214009450FFF74CFF0122A97B00F580535A602A8A49
S2140094608368002914BF4FF48061002142F0010296
S21400947013432A7D0B43002A14BF4FF000520022EC
S21400948083608368044613438360AB7C5BB11D4AEC
S214009490EB7C90422DD1A2F51032C2F88C31E36DF0
S2140094A043F08003E3652B7B2046D5E9011243F4A5
S2140094B08053E3601DF058FE6B7B0BB11023636195
S2140094C06B7D1BB1A36843F48033A360AB7D1BB1F7
S2140094D0A36843F40043A360EB7D2A7E1B071205B6
S2140094E003F0E04302F4E0021343A3652B786361C4
S2140094F038BD054A904204BFA2F52032C2F89C311E
S214009500CDE700BF00C00550000006500123064A04
S214009510411100F01F0003FA00F052F82130184302
S21400952042F82100704700BFBC1D0020044B1B689A
S2140095301BB1044B0360002070470120704700BF3A
S214009540CC1D0020B02A002070B50D4C246884B1D4
S2140095500C4C85182688B5420DDC6688CD18B542B9
S21400956009DC52B14BB1A0800020E18022816381EA
S21400957070BD0120FCE70420FAE70520F8E700BFED
S214009580CC1D0020B02A00202DE9F74F0093444B55
S2140095901B68002B7FD04FF0010BDFF80C910D9F5E
S2140095A0B9F80630B9F80A205D181A441FFA82FA8C
S2140095B0ADB21FB9384603B0BDE8F08FABB29A45DE
S2140095C06BD9384AB9F8084002EB0511241A009AFC
S2140095D0BC4228BF3C46161E18BF0126B9F8043008
S2140095E076420344072CA7EB04079BB2F6B221D8B9
S2140095F01C44BEB9A34217D2DE0803F007020BFADA
S21400960002F08A5D013322EA00028A559BB2F1E736
S214009610D8080E5C03F007020BFA02F2324301335D
S2140096200A549BB2A342F3D32846FFF76FFF0135D7
S2140096300020BEE74FEAD30C01EBD30813F0070374
S21400964010D00BFA03F211F80CE0D2B2501E5242C0
S2140096500EEA000032401043083B01F80C0008F107
S21400966001081C44E20809D031464046019228F021
S2140096708BFF14F00704019AD6D090440BFA04F43A
S21400968098F80030E4B26242013C134034401C4378
S21400969088F80040C8E701278CE704278AE700BF60
S2140096A0CC1D0020582B0020B02A002037B5124DC4
S2140096B02B68FBB905F0DAF9044618B101242046F8
S2140096C003B030BD05F0C6F928600028F6D0028841
S2140096D041880A4B20461A801A814A4359809C804A
S2140096E0DC805981CDE90042234622462146FFF719
S2140096F04BFFE4E70024E2E7CC1D0020B02A002060
S2140097002DE9F843002301251A461A4FDFF86C802E
S2140097103C68DFF86490D8F80000D61841888E427E
S21400972007D3FBB910220021124828F02DFF002095
S21400973012E0E10708D50133D118C9060ABF57F869
S214009740254064080135E6E753B109EB021105F040
S21400975027F9034610B10720BDE8F883721CEBE733
S2140097600132E9E7044901EB021105F019F9002876
S214009770D8D0F0E7BC1D0020582B0020CC1D0020C0
S21400978030B5054687B000B300226FF07F43C0E9CE
S214009790012301A8FFF7CAFE044698B9019BCDE94C
S2140097A002001A882B605B88013A013B284602A912
S2140097B0049205931DF03CFD044618B9284604495A
S2140097C01DF06FFE204607B030BD0524FAE700BF47
S2140097D03C2E030038B50446054D28F08FFA0FCC12
S2140097E00FC594E8030085E80300002038BD00BFDD
S2140097F0D01D002047F6FF739A42F0B566D00129C7
S21400980066D8344DCF0015F8313005EBC100012B7A
S214009810847813D10025C3781B1B9D4202D3E01821
S214009820C0B2F0BD591B4668A3EB510136F9116072
S2140098309642D4BF0D4601F1FF33EEE7406800289C
S214009840EFD0B0F90030934204DBB0F90230934217
S214009850B8BF134682883D44FF2A19BFC8214FF07F
S214009860280CB0F90610B0F908C0A1EB03020CBF33
S2140098700126002692FBFCF26D78324412B2954225
S21400988001DD002A01DA6A1E12B24FF47A7700EB85
S214009890C206F188B668013213FB016112B221EAF2
S2140098A0E1715C319542B1FBF7F104DD00EBC206D5
S2140098B0B6888E42EBD200EBC20232F8040C884225
S2140098C028BF0846A04238BF2046A9E7FF20A8E7E1
S2140098D00020A6E7D01D00200129F0B553D82B485C
S2140098E000EBC10410F83110636801290FD1E0784D
S2140098F0A478904294BFC4EB0001C4EB0201001BA5
S214009900CAB28242C8BF002233F91200F0BD002B53
S21400991039D0A178914202D3B3F90200F6E7E17894
S214009920B3F900009142F1D999886478A1F1FF0655
S214009930013C714203F10405E4B2714103F10C07E6
S2140099401FFA82FCCEB2B44216D805EBC1014FF422
S2140099507A756A43B1F902404968521A04EBD47129
S21400996002EB610292FBF4F29042CFDBB3F9020005
S2140099709042CBDC10B2C9E737F831E04E1CE64522
S214009980E3D33146DEE70248C0E700BFD01D002023
S2140099900080FFFF08B50448FFF71CFFBDE808403D
S2140099A0012028F0AFB900BF6C31030000487047B3
S2140099B0460D00207FB51422002101A828F0E4FD02
S2140099C0044B01A94FF0FF30029328F0D1F907B0FD
S2140099D05DF804FB006A18001B0603F0706300F0D5
S2140099E00F000902034301F47061120402F47022AE
S2140099F00B431343014A1360704700BF0020025C0C
S214009A0060B5054619B10139B1F5806F10D2094E1F
S214009A10F06810F48030FBD143EA0121120741EAD6
S214009A20050302F08052134343F00043736060BDA9
S214009A300120FCE70020025C0122054B9A60DA68F0
S214009A40D203FCD4D86820F00F000004000C704746
S214009A500020025C014B1868704700BF0040025CA3
S214009A60014B5868704700BF0010025C014B186B32
S214009A70704700BF0010025C014B1868704700BFBB
S214009A800010025C014B9860704700BF0010025C3B
S214009A90014B1864704700BF0010025C014B58640D
S214009AA0704700BF0010025C014B5863704700BF50
S214009AB00010025C0022014B1A6070470010025C26
S214009AC0024A136843F00103136070470010025CFB
S214009AD043F20402014B1A60704700BF0010025C9C
S214009AE0024A136843F03003136070470010025CAC
S214009AF0044B1A6842F480721A601A6822F4807264
S214009B001A6070470010025C024A136843F48063D0
S214009B10136070470010025C034A136823F4702336
S214009B2043EA0040106070470010025C044B1A695C
S214009B3002605A6942609A698260DB69C360704756
S214009B400010025C0268044B1A6142685A6182681F
S214009B509A61C268DA6170470010025C024B1A6BA9
S214009B60D207FCD4186270470010025C024B186BD8
S214009B7000F00E00704700BF0010025C82B01FB5F8
S214009B8007930A9B04AC8B4228BF0B4604E90700E8
S214009B901048D100079948BF03330160099948BFB0
S214009BA023F0030323F0704301F0E041194341F032
S214009BB000518160002102F0E042019C134343F013
S214009BC00053C16004618361416304B0BDE8104086
S214009BD002B070470000025C3F22034B1A6310225B
S214009BE0DA6103229A6370470000025C024AD36B74
S214009BF09B07FCD4704700BF0000025C034B986ACA
S214009C0010F0240018BF0420704700BF0000025C5C
S214009C1008B5FFF7F3FF064BDB6B23F47F4323F017
S214009C20EF0303431EBF0122024BC3F8FC2F08BDFF
S214009C300000025C00F0FF3F032208B5054B1860E9
S214009C4019615A63FFF7C8FFFFF7D0FFBDE8084069
S214009C50FFF7DEBF0000025C42680346182A10B514
S214009C600AD0202A1DD0102A2BD1174AD2F8042455
S214009C70D4010AD4012013E0134AD2F80424900138
S214009C80F8D50A6842F008020A6010481A6882424C
S214009C904FF000000ED10A6842F040020A60586099
S214009CA010BD094AD2F804245201E3D50A6842F0EE
S214009CB00402E9E7064CA242F2D10A6842F08002AA
S214009CC0ECE70720ECE700BF0000025C58330020FA
S214009CD0593300200B4607B50749D1F80414C907C5
S214009CE008D5002100920246084600F05BF803B053
S214009CF05DF804FB0120FAE70000025C1346064A02
S214009D00D2F80424D20504D50A46014600201DF0E8
S214009D100CBE0120704700BF0000025C13B5084C63
S214009D20D4F80444E40508D5009313460A460146D1
S214009D30002000F061F802B010BD0120FBE700BF74
S214009D400000025C13B5084CD4F80444E40508D5BA
S214009D50009313460A460146002000F071F802B050
S214009D6010BD0120FBE700BF0000025C70B5044692
S214009D700D4616468CB00A4A09AB07CA83E80700A8
S214009D801A462146CDE90563CDE90333CDE9013313
S214009D9000954FF480301DF0ECFC0CB070BD00BF99
S214009DA0F0310300F0B51C465B6815468DB01A0707
S214009DB0129E1AD1CBB17268934216D10C4B0D4A43
S214009DC053F8217009AB07CA83E807001A462946EC
S214009DD0CDE90533CDE90333CDE90163009447F4BB
S214009DE080701DF0C6FC0DB0F0BD0720FBE700BF7D
S214009DF0FC310300F0310300F0B516465A688DB00A
S214009E00102A0D46129F15D17A68102A12D10A4AD6
S214009E1009AC07CA84E8070022462946CDE905476B
S214009E20CDE90344CDE90144044800961DF0A1FCA9
S214009E300DB0F0BD0720FBE7F03103003000010055
S214009E40F0B516465A688DB0102A0D46129F15D1E9
S214009E507A68102A12D10A4A09AC07CA84E80700B1
S214009E6022462946CDE90574CDE90344CDE90144EF
S214009E70044800961DF07DFC0DB0F0BD0720FBE702
S214009E80F03103001000010082B070B586B0149D5A
S214009E9003AE202D86E807000B9359D805EB850303
S214009EA08B4203D006236B438B4253D10C9BAB42B1
S214009EB050D10F9BB3EB450F4CD1129A934249D128
S214009EC0012229462220159BFFF79AFD044630BB47
S214009ED0034606220E210C20FFF77EFD0123CDE966
S214009EE000332B4696E807001DF0E0FB0E230BAA76
S214009EF0009307CA2B461DF024FB0C23164C009338
S214009F000EAA2B4607CA1DF04CFB636823F07F039E
S214009F1043F026036360FFF78FFD30B1062420462A
S214009F2006B0BDE8704002B07047636823F07F0358
S214009F3043F022036360FFF77FFD04460028EDD15F
S214009F40062311AA009307CA2B461DF05DFBE6E721
S214009F500124E4E70724E2E70020025C70B598B02D
S214009F60002843D02C4C08AD0FCC0FC50FCC0FC526
S214009F700FCC0FC594E80F0085E80F006D4604AEC1
S214009F8004F1100320340FCB85E80F0094E80F008F
S214009F9086E80F00FFF7ACFD0420FFF7BDFDFFF7D6
S214009FA097FD3046FFF7CEFD002408AE56F8040BAA
S214009FB00134FFF7D3FD102CF8D1FFF751FD03282D
S214009FC0FBD90024FFF776FD2646FFF743FD55F83C
S214009FD0043B01365840042E44EA0004F5D12CB167
S214009FE0012206200D4B1A7018B070BDFFF780FDD9
S214009FF00820FFF747FD0020FFF74AFD0720FFF780
S21400A0004DFD4FF40070FFF74FFD0820FFF784FD6D
S21400A010FFF756FD0020E7E7D83203005B33002049
S21400A02008B5FFF765FD0122014B1A7008BD00BF99
S21400A0305A33002030B589B005AC84E80700FFF736
S21400A04015FDC30501D5FFF7EBFF0A4D2B781BB1B5
S21400A0501DF0E6FD00232B70074B069AD3E901019D
S21400A0608DE8030002921B6894E807001DF0E1FCEF
S21400A07009B030BD5A330020383303001FB51DF039
S21400A080CFFD044630B1012206240D4B1A7020463F
S21400A09004B010BDFFF7DEFC0090FFF7DBFC01907C
S21400A0A0FFF7D8FC0290FFF7D5FC03906846FFF751
S21400A0B049FDFFF7B5FFFFF713FDFFF725FDE6E7C0
S21400A0C05B33002005289ABF014B185C00207047C0
S21400A0D04433030030B5154B87B00293144B0390FE
S21400A0E0049346F611030D46059300F06DF9142807
S21400A0F0044616D168461DF04BFE4FF0A8430322D7
S21400A10002A95A6319601D619A63DA6B9207FCD143
S21400A110142C02D168461DF049FE00F089F9044669
S21400A12001E00028E9D0204607B030BDE81D002039
S21400A130040000202DE9F04FB1B005468C46E946F4
S21400A1406E4F3B9EDDF8F8E0409C07F1100AC846CB
S21400A150386879680837A8E803005745C146F6D13D
S21400A1600EEB0208C8F1000909F00F09002E00F0F6
S21400A170AF80774207F00F070121DDF8FCB0C4F18D
S21400A180100ACDF810B0059144F0005106914FEA40
S21400A1900A2101F4F85141F02101079106B96B46F6
S21400A1A00893002D40F09680002C00F0938004ABBE
S21400A1B00993002E00F0908046F000530A93002D7D
S21400A1C040F08D80002C14BF0123212343EA07238F
S21400A1D00B9308A942F00053CDF830C03D980D917E
S21400A1E00E934FEA092343F041030F93109002B1F8
S21400A1F00CA9002A16BF00224FF00052412342EA63
S21400A2000E021191129213933C9B3D4A149310AB8D
S21400A21015933C4B0021169340F6110317933A4BC7
S21400A220002D08BF1346189314AB1993374B102212
S21400A2301A9311231B931CAB184628F0A5F901228C
S21400A2401D924AF080421E9200220346239205B9D0
S21400A250EB46102C08BF01230DF1900A10220021B6
S21400A2605046CDF880B02193229428F08DF9002C2A
S21400A27037D020AB002125938F4218BF534647F0B6
S21400A280804226923A9A2CA88A422892299313460C
S21400A2900CBF4FF080430B46102233432B912A937A
S21400A2A028F072F9FEB95346C8442D932CA948F0FD
S21400A2B0804318A82E93FFF70DFF30B92DB903463B
S21400A2C0A34212D1002818BF2C2031B0BDE8F08F71
S21400A2D0102751E701236BE747F000536EE7212371
S21400A2E074E70123C6E728ABDEE703F1C0026A4441
S21400A2F012F8C02C01331043E2E700BF4A330300D4
S21400A3005C330300100000206033030004000020CC
S21400A310F0B5C0299FB0249E4FD0B1F5807F04D001
S21400A320802941D029201FB0F0BD40F2344440F2CD
S21400A3301445002E08BF2C46212710250194012421
S21400A3400296039404950597259F069706B102ACDE
S21400A35007940124089509940A9221220B940C95DF
S21400A3600D92174A0AAC0E92164A0F94109242F6B5
S21400A37011021192129313941495159201AA169233
S21400A380CBB112AB1793042318931123199316AB72
S21400A3901A901B9340F61103C9081C911AA806A927
S21400A3A01D93FFF797FEBEE7002E14BF4FF486649A
S21400A3B04FF48264C0E70EABE4E70F20B3E700BFBC
S21400A3C0643303001000001038B5164B5A6E42F086
S21400A3D004025A66D3F8802242F00102C3F88022B3
S21400A3E0114B5B68C3F3080343B14FF0A842D36B2D
S21400A3F013F0430FFBD11424204638BD4FF0A8437A
S21400A400DC6B14F04304FBD1084D2B681BB9042108
S21400A410284602F0E3FD2B68013343F000432B602F
S21400A420EAE700BF0080005000ED00E0E81D0020D5
S21400A430014B00205B68704700ED00E04FF40052CF
S21400A440034B00209A660322C3F86022704700BFC1
S21400A4500090005008B5FFF70FFBC30708D5FFF7BD
S21400A46085FB062804D00A28F5D1FFF7D9FDF2E7C8
S21400A4704FF40052034B00209A660322C3F8602272
S21400A48008BD00BF00A000501FB54FF40052164B89
S21400A4909A660322C3F86022FFF7EEFAC30710D4C9
S21400A4A001201DF0CAFB002814BF6FF092040024A0
S21400A4B0FFF7D0FF00280CBF20466FF0920004B0D4
S21400A4C010BD10220021684628F05EF86846FFF7A7
S21400A4D02DFBDDE900321343029A1343039A13431C
S21400A4E0DED00024E4E700BF00900050012300F017
S21400A4F01F02A0F506200949A0F5506040099340C8
S21400A50051F820201A4341F82020054951F8202010
S21400A51022EA030341F82030704700BFEC1D0020FC
S21400A520001E00200121A0F506230F4AA3F5506364
S21400A5305B0900F01F0001FA00F052F823100843F0
S21400A5400A4942F82300D1E90030034488680344EE
S21400A550C868096903445B1802BFC2E90033C2E950
S21400A56002331361704700BF001E0020EC1D002060
S21400A5702DE9F04FA9B002921D46DDE93267044688
S21400A5800822CDE90301414021FA02F34B40980727
S21400A59002F1080218BF9B00202A1C44F4D1812334
S21400A5A0B4FBF3F303EBC313E41A7A4B04F5062467
S21400A5B01B7804F55064002B40D1FDF76BFA01467A
S21400A5C020B16FF0910029B0BDE8F08F40220590D1
S21400A5D008A827F0D9FF4022059918A827F0D4FF2D
S21400A5E0DFF8C891DFF8C8A14B4603F10F0B102225
S21400A5F008A9DAF80000CDF800B0059327F01CF99A
S21400A60000220146059B09F110090DF12008914230
S21400A6104CD1CDF800B01022DAF8000018A927F0C7
S21400A62014F94FF0000B03460DF160085B4549D165
S21400A630594B9945D8D10122564B1A704FF08108D4
S21400A6404FF00009DFF868A1A4F506235349A3F5E7
S21400A6505062520951F8221004F01F0C21FA0CF136
S21400A660C90744D44E4951F8220020FA0CF010F0E5
S21400A670010030D0B9F1000F08BFA146A3F6FF4491
S21400A6808123B4FBF3F303EBC313E41A04F50624A7
S21400A690B8F1010804F55064D6D1029BEBB1B9F1CC
S21400A6A0000F1AD0349BC3F800906DE058F8040BE6
S21400A6B0CDE906230591FFF719FF069A079B059932
S21400A6C00132A4E758F8040B05930BF1010BFFF7D2
S21400A6D029FF059BAAE7029B13B96FF08B0072E770
S21400A6E0349BB9F1000F4ED0C3F800906BE70EB163
S21400A6F0002333600FB100233B604FF0100B0023A4
S21400A7002A462146DAF80000CDF800B014F0DAFB4D
S21400A71008BB0EB1C6F800B02B68224A934224D17B
S21400A72066B15FB13B462146DAF8000018AA14F07D
S21400A7301DFC80B93B6832689B1A3B60D5E9022352
S21400A740DDE90310834208BF8A4216D0A4F506242A
S21400A750A4F6FF4494E7144B984206D0123398426E
S21400A76003D0133B9842E9D02BE72146DAF80000E5
S21400A77014F042FC0028E1D0AFE7029B13B16B68EF
S21400A780012B03D0349B1C6000201CE76FF0840074
S21400A79019E700BF5C33002000710800EC1D0020A4
S21400A7A0001E0020105D175EFFDF00F0006D080041
S21400A7B0FC0A00202DE9F04F87B08246894698466D
S21400A7C01646DDF840B02AB1002B4ED040F26C732E
S21400A7D09A424DD8BBF1010F4DD8002406F1100760
S21400A7E03946012005941DF025FE0546002845D073
S21400A7F021463A4627F0C8FE05ABCDE90143009452
S21400A8002B46012250464946FFF7B2FE044680B169
S21400A81010F18C0F08BF6FF08D043A4600212846D1
S21400A82027F0B2FE28461DF016FE204607B0BDE80B
S21400A830F08F144BC5E902A92B60C5F804B02EB101
S21400A8403246414605F1100027F077FE0E483B469B
S21400A8502A460599006814F09DFA18B90598FFF77E
S21400A86045FEDAE76FF09104D7E76FF08604DCE781
S21400A8706FF09104D9E76FF08504D6E76FF08C048B
S21400A880D3E700BF105D175EFC0A00202DE9F043F9
S21400A8908DB08146DDE914780C4615461E469BB100
S21400A8A0B8F1000F05D16FF0860420460DB0BDE864
S21400A8B0F083002FF7D0B7F1005FF4D3C3F1005355
S21400A8C003F500439F42EED81022002108A827F087
S21400A8D05BFE002207AB029305AB019306AB214655
S21400A8E00093484608ABCDE90522FFF741FE044633
S21400A8F00028DAD10599DEB1A94203D80029D2D1C1
S21400A90015B1D0E70029FBD0491BB14228BF31461C
S21400A910069B0948C8F8001000913A460799006857
S21400A9202B4414F0CFFA002818BF6FF09104BCE750
S21400A930A942E9D2B7E700BFFC0A002030B58DB0C7
S21400A9400C4605461022002108A827F01DFE00220E
S21400A95007AB029305AB019306AB2146009328464E
S21400A96008ABCDE90522FFF703FE0446D0B9099BE4
S21400A970012B1AD0104B0799186814F03DFBB8B994
S21400A980012207980D49A0F50623A3F550635B093D
S21400A99000F01F05AA4051F823506A4041F82320D2
S21400A9A0FFF7C0FD20460DB030BD6FF08404F9E718
S21400A9B06FF09104F6E700BFFC0A0020EC1D0020B3
S21400A9C02DE9F0438BB01746DDE91545DDE9132682
S21400A9D09C46DDE91738894621B96FF086000BB032
S21400A9E0BDE8F083002FF8D00EB9002CF5D11299EF
S21400A9F009B9002AF1D10DB9002BEED1B8F1000F3C
S21400AA00EBD0254A944544D10288B2F5105F40D178
S21400AA104288B7EBD20FE0D322F04001802902D063
S21400AA20B2F5807FD9D11CB92046C8F80040D6E7D9
S21400AA30AE421CD23219954219D29C42CDD831462C
S21400AA402246284627F086FD2E4614F00F03C4D172
S21400AA50CDE90197CDE90336CDE90543CDE90754A5
S21400AA600993FFF7EBFC38B16FF09200B7E79C4212
S21400AA70EBD96FF08900B2E707AA04A901A8FFF78F
S21400AA8029F90546FFF7E6FC2843EDD1C8F8004053
S21400AA90A5E76FF08500A2E7004440042DE9F04FDB
S21400AAA0A9B0834617469A460E46DDF8C890DDF8EC
S21400AAB0D88029B96FF08603184629B0BDE8F08F14
S21400AAC0002AF7D0B9F1000FF4D0349B002BF1D058
S21400AAD0B8F1000FEED00024434B0CAD93E807000E
S21400AAE085E807003C22214619A8189427F04CFD5B
S21400AAF03288718802F4E040B0F5804FDAD03B4EE1
S21400AB003B480BEA060646F01066864265D1B1F56C
S21400AB10807F62D147F212118A425ED10620354903
S21400AB20BAF11F0F0A69CB6800FB02F209680B93A3
S21400AB30CDE90C120E94BDD9339B402BBAD9359B68
S21400AB401F2B4DD909F1010220261292402299F8B6
S21400AB5000300F97042B18AFCDE91324CDE91572FA
S21400AB60109611941794A5D1FFF768FC03460028A9
S21400AB70A2D10B9B15AACDE9086305AB07CA83E8EB
S21400AB80070002AB12AA07CA83E80700DDE9100136
S21400AB908DE803000F9B95E80700FFF775F905465B
S21400ABA0FFF758FC55EA000384D13D46349A20AEA0
S21400ABB02C4603CCB44210605160254602F10802D0
S21400ABC0F6D100221046B9180132412A03D12022BC
S21400ABD0C8F8002070E70870F5E76FF085036BE7AC
S21400ABE06FF0890368E700BFF03103000000FFF64E
S21400ABF000000209C4320300F0B50F461D468DB0B2
S21400AC0000285AD0002958D0002A56D0002B54D0FD
S21400AC100388B0F802C0194603F44F44B4F5824FD7
S21400AC2018BF002321F0FF01B1F5E24FDBB203D0DD
S21400AC306FF085000DB0F0BD122B01D0172BF7D1A9
S21400AC400CF10701B2EBD10F4FEAD10638D31F4AF9
S21400AC5006ACBCF5807F07CA84E80700E8D1122B53
S21400AC6007D11B4B1A691B681344CDE90632002333
S21400AC7008930023CDE909760B93FFF705FC00281F
S21400AC80D8D1FFF7DBFB0028D4D1124B114905932E
S21400AC9002AB049083E803000CAB13E903008DE8D5
S21400ACA00300099B94E807001CF049FE0446FFF7E2
S21400ACB0D1FB204307D12E60BCE76FF08600B9E7D2
S21400ACC06FF08900B6E76FF09200B3E7F03103004B
S21400ACD0C43203005B7C02002DE9F0438FB01D46B2
S21400ACE0DDE916C6002863D0002961D0002A5FD0AF
S21400ACF0002B5DD0BCF1000F5AD0002E58D0038830
S21400AD00B0F802E01C4603F44F47B7F5824F18BF71
S21400AD10002324F0FF00B0F5824FDBB24ED0B7F52B
S21400AD20824F4BD1122B01D0172B47D10EF10700C3
S21400AD30B2EBD00F4FEAD0083AD34FEA4802571C7E
S21400AD40674538D8BEF5807F38D1122B18BF4FF034
S21400AD5000094FF0000308BF1B4CCDE9081805F1A9
S21400AD60010114BF4C46D4F80C90CDE90B120A939F
S21400AD700D93FFF763FBC0B9CDE9058902AB08AABE
S21400AD8007CA83E807000EAB13E903008DE803004B
S21400AD900B9B94E807001CF0F1FD0446FFF75AFBF6
S21400ADA020430ED104232B7037600FB0BDE8F0832C
S21400ADB06FF08600F9E76FF08900F6E76FF0850020
S21400ADC0F3E76FF09200F0E7C43203002DE9F0439A
S21400ADD089B00D4614461F46DDF8488020B96FF04E
S21400ADE0860009B0BDE8F0830029F8D0002AF6D026
S21400ADF0B8F1000FF3D0028802F44F43B3F5824F48
S21400AE000CBF13460023DBB202D06FF08500E8E7E4
S21400AE10122B01D0172BF8D122F0FF02B2F5E24F29
S21400AE2040D14288C8F80020002A36D1E200C8F88F
S21400AE300020D8F80020B2F5807FE6D1122B09BF9B
S21400AE40384B00221A681B6905EB040608BFD218A7
S21400AE5000231846224412F801CD16F8011D0843B7
S21400AE60B1EB0C010CBF4FF0FF3C4FF0000CB542AD
S21400AE700CEA030343EA0103EDD10028AFD0002B10
S21400AE80ADDA109B9C4249D822462946384627F020
S21400AE9054FB119B00201C60A3E70732B4EBD20FD3
S21400AEA0C7D09CE72A78042A99D1621ED20052089D
S21400AEB0B2F5807FC8F80020A7D1122B05F1010358
S21400AEC018BF4FF000094FF0400205934FF0000303
S21400AED00ABF144E4E46D6F80C90CDE90623FFF76F
S21400AEE0ADFA00287FF47DAFCDF80C90D8F800308E
S21400AEF00733DB08029308AB13E903008DE8030071
S21400AF00059B96E807001CF0E2FD0646FFF7A2FA4E
S21400AF1000287FF466AF002EB3D060E76FF089009C
S21400AF205FE700BFC43203002DE9F04F8FB005463F
S21400AF30DDE918A993461E46DDF868801C9F09B314
S21400AF4000B3B8F1000F1DD0E7B1BAF1000F02D17F
S21400AF50B9F1000F16D1284B26F47E129A4247D13B
S21400AF6028461CF054FF0446B0BB6B88BBEBD30FDF
S21400AF704FEAD30206D316F47C1FC6F3054504D069
S21400AF80102D03D96FF0860426E010251B9B9D42EA
S21400AF902BD80023CDE901121022CDE905930DF13F
S21400AFA02809CDE9033ACDE90823CDF81C90FFF730
S21400AFB045FA044680B907AA04A901A8FEF79EFE32
S21400AFC00646FFF747FA044656B958B92A46494690
S21400AFD0404627F0B2FA3D6020460FB0BDE8F08F3D
S21400AFE06FF0920400233B60F6E76FF08904F3E706
S21400AFF06FF08504F0E700BF0002C0032DE9F041C2
S21400B000069F0C461646054610B309B302B9FBB9AF
S21400B0106288B3EBD20F4FEAD20819D34C22002134
S21400B020284627F0B1FA0D4B27F47E129A4212D129
S21400B03020461CF0ECFE044638B942463146281D30
S21400B04027F07BFAC5F824802F602046BDE8F08103
S21400B0506FF08604F9E76FF08504F6E70002C00398
S21400B0602DE9F0410E4614460546002840D000293A
S21400B0703ED012B90020BDE8F08103681F4823F4D3
S21400B0807E13834237D1AF6BE7B1C7F1100807F1E3
S21400B09028004245284404D227F04FFA3C44AC63CB
S21400B0A0E8E7424627F049FA1022103C3C19AA630A
S21400B0B0E0D0284605F128011CF0C5FE0028DAD1AC
S21400B0C04644A863102C0CD9671E27F00F073A4693
S21400B0D0314628461CF0B7FE0028CCD1E41BC9D068
S21400B0E03E442246314605F1280027F026FAD6E7E8
S21400B0F06FF08600BFE76FF08800BCE70002C00371
S21400B1002DE9F04388461F4605468BB070B169B1FD
S21400B11063B10368234923F47E1088423ED113F4BA
S21400B1207C1FC3F3054604D0102E03D96FF08604A7
S21400B1302AE0102696422BD8FFF780F9044618BB63
S21400B140AB6B05F12802CDE901236B6A2A1DCDE918
S21400B15004231023CDE9083007AB1A460390069067
S21400B16005F13C0901A904A8CDF81C90FEF7EAFDFC
S21400B1700546FFF76FF904466DB928B932464946C9
S21400B180404627F0DAF93E6020460BB0BDE8F08373
S21400B1906FF08904F8E76FF09204F5E76FF0850426
S21400B1A0F2E700BF0002C00307B56B46054A106809
S21400B1B0516803C36846FDF79DFC002003B05DF8A8
S21400B1C004FB00BF6833030013B50024064A684634
S21400B1D0536F43F00103536700948DF80440FDF766
S21400B1E0C1FB204602B010BD0040005030B58BB009
S21400B1F06C46174D0FCD0FC40FCD0FC495E8030056
S21400B20084E80300134BD3F84C21120317D4D3F869
S21400B2105041E4B28DF81940FDF724F8204480F33D
S21400B22008008DF818000C48FBF7D4FE6846FCF7BB
S21400B23035FF3220FDF78CF800200BB030BD074BF1
S21400B2401C884FF6FF739C4208BF8C24E2E700BFC1
S21400B250703303000080E00F00F049020001E00FA9
S21400B2606FF00402502110B50A480B4C12F0800F04
S21400B270D3B21BBF03F00F03043BA3181B1802F145
S21400B28001020CBF83F800131976402AEED1002085
S21400B29010BD00BF00ED00E000E100E010B5044680
S21400B2A01BF0D5FE024B1C601BF0D5FE002010BD27
S21400B2B0141E002010B51BF0CAFE034B1C681BF0C2
S21400B2C0CAFE204610BD00BF141E002030B514462E
S21400B2D0054687B010461CF063FE6369024683424B
S21400B2E03CBFD4E903315B181B1A7BB10F492846D3
S21400B2F003910021CDE90131012304940093D4E9A0
S21400B30000131BF070FD002007B030BD01226276EE
S21400B31094F82D20002AF6D084F835301321E369FE
S21400B320204698472046636A9847ECE7CDB200006F
S21400B3302DE9F04788B004468846174699461BF024
S21400B3408DFE8246002F7AD0237E03F0FF02002B6C
S21400B35000F0A28020461CF023FE6669B04205D1AC
S21400B360637ED4E903521544AD1B01E0F9D9851B71
S21400B370BD4228BF3D461BF071FE94F82D300646B0
S21400B380002B6DD12A464046616927F0D6F86369DE
S21400B3902F462B44636121E0037803F0FD01112959
S21400B3A05BD1216B814205D1A3F111014B424B4188
S21400B3B084F83430013F6369216B01328B4203F11C
S21400B3C0010308BF2363636195426069E4D1D4E951
S21400B3D00323216B1344994200D122630025D4E94C
S21400B3E0032361691344994208BF6261207A657637
S21400B3F0FCF704FA20461CF0D3FD6369834232D181
S21400B400257694F82D30E568656103B125632046FE
S21400B410636A9847214B2A460393002302932369C5
S21400B420216801930123207A0093049463681BF03B
S21400B430DAFC207AFCF702FA30461BF015FE50467E
S21400B440C9F800701BF010FED9F80030002B0CBFB6
S21400B4501B20002008B0BDE8F08708F8013BAAE7EB
S21400B4602F460022B0E70123207A23760DF11E0135
S21400B470FCF74CFA9DF81E30002BDAD00DF11F01B8
S21400B480207AFCF71BFA9DF81F100029D1D122461E
S21400B490207AFFF71BFFCCE71746D0E7CDB20000B7
S21400B4A0002808DB0123420900F01F0003FA00F021
S21400B4B0014B43F82200704700E100E0002809DB5A
S21400B4C00122430900F01F0002FA00F0024A60332E
S21400B4D042F82300704700BF00E100E070B5044664
S21400B4E00568FFF7E7FE844202D10020FFF7D6FE8C
S21400B4F095F93600FFF7E2FF95F93630002B0DDBA5
S21400B50001215A0903F01F0301FA03F318492032F8
S21400B51041F82230BFF34F8FBFF36F8F95F9370096
S21400B520FFF7CCFF95F93730002B0DDB01215A09C8
S21400B53003F01F0301FA03F30D49203241F82230CD
S21400B540BFF34F8FBFF36F8F287AFCF797F9287AEF
S21400B550FCF7FAF8FCF7D6F800232846C4E90033CF
S21400B560C4E90433A360AB6ABDE87040184700BF67
S21400B57000E100E02DE9F0410C461546064686B08F
S21400B5804022002120461F4626F0FEFF95E80300D5
S21400B59000232A692376EB6884E80300C4E90423C1
S21400B5A02A7DE36084F82C20AA7D2363012384F897
S21400B5B0343084F835300C9B84F82D2023620D9BA4
S21400B5C0E76163620E9BA3622B7A84F836306B7A4F
S21400B5D084F837302D4B346073602D4BB3602D4BA1
S21400B5E033612D4B73612D4BF360FCF7D3F838B104
S21400B5F02B4B984204D01024204606B0BDE8F081BC
S21400B600002104F10800FCF74DF807460028F2D1A7
S21400B6104FF00108234B3362234B84F83C80B36120
S21400B620224BF3619DF8403084F8390084F83B30B3
S21400B6309DF83C30204684F83A30697D84F838809E
S21400B6401CF0BEFC95F90900FFF738FF95F90900D4
S21400B650FFF726FF164B0494CDE902732369CDE964
S21400B66000836368E2682168207A1BF0BCFB04460E
S21400B6700028C0D195F90800FFF720FF95F90800CB
S21400B680FFF70EFF3046FFF709FEB5E71180020010
S21400B69031B300008F7F0200957F0200DDB400000A
S21400B6A0038000F0657F0200C17F02009B7F0200DE
S21400B6B0CDB200002DE9F04101271C46594B86B05B
S21400B6C00293594B0C9D0193584B904600930A46A3
S21400B6D0CDE903772946564BFFF74CFF0646002870
S21400B6E07BD1236839462B6463683A206B64637A9F
S21400B6F085F84930237A85F84830E37A85F84B3068
S21400B700A37A85F84A30637B85F84D30237B85F82D
S21400B7104C30E37B85F84F30A37B85F84E30FCF742
S21400B720B3FB3B460422617A207AFDF721FA3B46BA
S21400B7300222E17AA07AFDF71BFA39466068FCF728
S21400B740A3FB88F8006041462068FDF7FDFD142243
S21400B750637C5B0103F1A04303F57033C3F81C263A
S21400B760617A227A42EA0142C3F83426E17AA27A62
S21400B77042EA0142C3F82C2685F8506098F8193042
S21400B780032B4DD8DFE803F01A022D4701230027CC
S21400B79085F8503000230222617B207BFDF7E8F914
S21400B7A0637B227B617C42EA0342224B49015A506A
S21400B7B00422236803F58053DA65AFB9237A2A6C2E
S21400B7C085F84830637A052185F84930D36C2068BF
S21400B7D043F00403D3641BF0D7FC304606B0BDE844
S21400B7E0F081022385F8503000230422E17BA07B01
S21400B7F0FDF7BEF9022741F21C61627C0E4B03EB9B
S21400B80042104750E07BA17BB13241EA004103EB96
S21400B81042139960D2E70323012785F85030B9E731
S21400B8202326DAE73B8102002F810200C78102004F
S21400B830BB81020024D6035000C00350BFF35F8FC5
S21400B840074B5A6A22F480325A62D3F8942022F0C8
S21400B8500102C3F89420BFF34F8FBFF36F8F70477A
S21400B86000ED00E070B52648264CFFF7E7FF84425F
S21400B87008BF4FF08043244A18BF20F01F03D2F8B9
S21400B880C01018BF203B21F0FF0141F0A001B3F12A
S21400B890005FC2F8C0100CD31C4D1D4E296843F043
S21400B8A00103C2F898100131C2F89C60C2F8A030BB
S21400B8B02960844210D01548164B0268124923F0BE
S21400B8C01F0343F00303C1F89820C1F89C30124BC5
