S0120000536B7953796E635F5630312E733337F8
S214006000C00A002091690000DD430200DD43020063
S2140060107D550200DD430200DD430200DD43020041
S214006020DD430200DD430200DD430200DD430200E3
S214006030DD4302008CF60200D5420200DD4302007A
S214006040DD430200DD430200DD430200596E00001E
S214006050DD430200DD430200DD430200DD430200B3
S214006060DD430200DD430200DD430200DD430200A3
S214006070D5B70000DD430200DD430200ED680000F6
S2140060806B430200DD430200DD430200DD430200F5
S214006090DD43020039730000DD430200DD430200E9
S2140060A0DD430200DD430200DD430200DD43020063
S2140060B0DD43020021250200DD430200152F020009
S2140060C01FF002001BF00200092702002BF002005E
S2140060D023F00200ED2E020027F00200552F0200EA
S2140060E085090200590B0200C12F0200DD430200A1
S2140060F0DD430200DD430200DD430200DD43020013
S214006100DD430200DD430200DD430200DD43020002
S214006110DD430200DD430200DD430200DD430200F2
S214006120DD430200DD430200DD430200DD430200E2
S214006130DD430200DD430200DD430200DD430200D2
S214006140002370B5404C05468AB0E36318B100885A
S21400615023600CF02BF83D4828F0C5FA3C4E3D4B2A
S214006160304633603C4B736023F020F90021304604
S21400617016F04CFB32A3D3E90023A062C4E9062341
S21400618023F01FF9D4E90623194310434FF0FF33D9
S214006190C4E90601CDE900014FF0FF32A06A28F0FD
S2140061A00BFB02224FF0FF31A06A28F00AFB012009
S2140061B00BF00AFE4FF4007300222849A06A28F06C
S2140061C058FBB0F5007F38D100239422CDE9073381
S2140061D009933C23CDE9033205939623A06A03A9CD
S2140061E0069316F02FFC35B3287C0CF0A5F905466F
S2140061F0F0B9A06A28F01EFC0CF046F90BF0C6FDBC
S21400620020B14FF48070002109F06EFB0BF0CEFD3C
S21400621020B14FF40060002109F066FB23F095F8EA
S214006220012016F047FB0E4A0E49A06A23F0BCF880
S21400623028460AB070BDFF20D7E70725F8E700BF5D
S2140062400DD5015520000000480F0020690345ECDD
S21400625084220020591C010078220020782000208B
S214006260519302009193020010B5054C237833B980
S214006270044B13B1044800E000BF0123237010BD97
S2140062809811002000000000B445030008B5034B39
S2140062901BB10349034800E000BF08BD0000000032
S2140062A09C110020B4450300A3F5803A704700BF58
S2140062B0174B002B08BF134B9D46FFF7F5FF002139
S2140062C08B460F461348144A121A28F0FBFE0E4B54
S2140062D0002B00D098470D4B002B00D0984700208D
S2140062E0002104000D000D48002802D00C4800E0F4
S2140062F000BF1DF097F8200029001DF0DFFF1DF0FD
S2140063007DF800BF0000080000000000000000004C
S214006310C00A0020D40E0020D02800200000000074
S214006320000000000368864A23F47F4323F0070337
S214006330934273B505D0834A934200F0AB8002B017
S21400634070BD814E30460EF0F9FD054610B37F4C09
S2140063507F4920681EF05AFF7E4920681EF056FFCF
S2140063601EF03AF81EF039F87B4B7C4A00937C49C5
S2140063704E2320681EF04AFF7A492B467A4A206848
S2140063801EF044FF284600F0E3FA784920681EF025
S2140063903DFFFEE7022130780EF00AFE044610B3F9
S2140063A06A4D6B4928681EF031FF6A4928681EF05E
S2140063B02DFF1EF011F81EF010F8674B674A009389
S2140063C06749532328681EF021FF66492346664A1C
S2140063D028681EF01BFF204600F0BAFA63492868BA
S2140063E01EF014FFFEE7A022034600901146307808
S2140063F00EF0BCFD054610B3544C554920681EF0FF
S21400640005FF544920681EF001FF1DF0E5FF1DF052
S214006410E4FF514B514A009351495C2320681EF01B
S214006420F5FE50492B46504A20681EF0EFFE2846DF
S21400643000F08EFA4D4920681EF0E8FEFEE70221C5
S21400644030780EF0C9FD054600283FF478AF3F4C83
S2140064503F4920681EF0DAFE3E4920681EF0D6FE50
S2140064601DF0BAFF1DF0B9FF3B4B3C4A00933C4978
S214006470602320681EF0CAFE3A492B463A4A206836
S2140064801EF0C4FE284600F063FA384920681EF065
S214006490BDFEFEE72C4C022120780EF089FD054655
S2140064A010B32A4C2A4920681EF0B0FE29492068FD
S2140064B01EF0ACFE1DF090FF1DF08FFF264B274A06
S2140064C0009327496E2320681EF0A0FE25492B4620
S2140064D0254A20681EF09AFE284600F039FA23491D
S2140064E020681EF093FEFEE7022120780EF074FD71
S2140064F0054600283FF423AF144C154920681EF0CB
S21400650085FE144920681EF081FE1DF065FF1DF013
S21400651064FF114B114A00931149732320681EF043
S21400652075FE10492B46104A20681EF06FFE28465E
S21400653000F00EFA0D4920681EF068FEFEE700BF68
S214006540A0000100A0000601D60C00203412002096
S214006550D8F30200DAF302001DF40200DFF30200B3
S214006560E8F30200F7F30200F4F302000CF4020072
S21400657030B50368544A23F47F4323F0070393425D
S21400658089B040F09E800522002116204F4B0EF069
S21400659037FD054610B34E4C4E4920681EF036FEB9
S2140065A04D4920681EF032FE1DF016FF1DF015FF47
S2140065B04A4B4B4A00934B49592320681EF026FE4F
S2140065C049492B46494A20681EF020FE284600F01E
S2140065D0BFF9474920681EF019FEFEE70DF10F01CE
S2140065E004A80EF023FD044610B3394D3949286837
S2140065F01EF00CFE384928681EF008FE1DF0ECFE62
S2140066001DF0EBFE354B364A009336496423286866
S2140066101EF0FCFD34492346344A28681EF0F6FD79
S214006620204600F095F9324928681EF0EFFDFEE797
S2140066309DF8153001468DF818309DF81430082264
S2140066408DF819309DF8133018208DF81A30FF2376
S2140066508DF81B30FE238DF81C309DF812308DF817
S2140066601D309DF811308DF81E309DF810308DF8D5
S2140066701F3006AB0EF0C4FC054610B3144C15498B
S21400668020681EF0C3FD144920681EF0BFFD1DF0F3
S214006690A3FE1DF0A2FE114B114A0093114974236C
S2140066A020681EF0B3FD10492B46104A20681EF0E5
S2140066B0ADFD284600F04CF90D4920681EF0A6FDF9
S2140066C0FEE709B030BD00BFA00001002CF40200B8
S2140066D034120020D8F30200DAF302005AF4020063
S2140066E032F40200E8F30200F7F30200F4F30200CB
S2140066F00CF4020010B5234C01F03EF901F022FB29
S214006700236F23F0070343F0030323671DF0D9FF2D
S2140067101D4B00209B6A9B075EBF01221B4B9A62A3
S214006720D4F8203123F0030343F00203C4F82031E9
S214006730D4F8243123F0070343F00203C4F82431CD
S214006740D4F8403123F0030343F00103C4F840318A
S214006750D4F8603123F0030343F00103C4F860313A
S214006760D4F8403223F0030343F00103C4F8403268
S214006770D4F8003223F0070343F00103C4F80032D4
S21400678010BD00BF0080005000C0005000E0005068
S21400679008B501F06BFE01280ED1114B04205A6E8D
S2140067A04FF480230F49520358BF0F4A4B6601F53A
S2140067B01041086258BF536603F090FC03F032FCA9
S2140067C003F052FC1EF0CEFCFFF794FF03F03AFCF9
S2140067D000F00AFB00F0FAFDBDE8084004F0ECB853
S2140067E0008000500090005000A0005030B51A4DB8
S2140067F095B00DAC0FCD0FC495E80700292384E8AB
S21400680007000021154A1024CDE90223144B224626
S214006810CDE904314FF4807309A8069328F052FCA2
S2140068204FF4A0210F4B0DAACDE907130F238DF8C7
S21400683024300D4B07A90A9320230B9301238DF8D0
S21400684031300A4B0A48009302AB8DF8254003F01E
S21400685079FE15B030BD00BF68F602000000065095
S2140068600005000424000650A0270020B4110020D4
S21400687010120020831E012B10B512D8012910D843
S214006880114B04221B6905210020C3F3401301F0BD
S21400689031FC0E4B1B681868A8B1BDE81040436A6F
S2140068A018478B1E012B0CD801280CD8BDE81040C9
S2140068B00022054B05211B691046C3F3401301F067
S2140068C019BC0129E5D910BD00C00350C80A002034
S2140068D008B50449044804F033F9BDE80840FFF75A
S2140068E085BF00BFC00A00200812002001481EF025
S2140068F0FBBD00BF10120020014B1A6A1868104733
S21400690010120020012208B5074B1A700022074B10
S2140069101A700422064B1A701F22064B1A7003F0D8
S21400692007FC054B186008BDD70C0020C0270020C8
S214006930D80C0020D90C002034120020024B03494A
S21400694018681EF063BC00BF3412002084F60200F4
S21400695070B50C4C0C49064620681EF057FC03F038
S214006960E7FB0546206803F0D7FB3046FFF7E6FF57
S214006970284603F0D1FB20680449BDE870401EF0AD
S21400698045BC00BF3412002086F6020088F60200DE
S21400699008B500F02DF8124B12498B4212D3002096
S2140069A0114B12498B4218D3FFF782FC186850F837
S2140069B02240586840F82240013298688242F5D357
S2140069C00C33EAE70022F8E71C6844F8220001329C
S2140069D05C68A242F8D30833E4E70022F8E700BF79
S2140069E0BC450300C8450300C8450300C84503006E
S2140069F04FF400414FF0FF30124B134A10B59A6027
S214006A00D3F8882042F47002C3F888200F4A9166B3
S214006A1001F1884101F5005210664FF6DF705066AE
S214006A200220C3F8D000BFF34F8FBFF36F8F082448
S214006A304FF440330648C0F88041D36004600B61D1
S214006A4010BD00BF00ED00E00060000000900050A8
S214006A5000E100E0014B1868704700BFD00A002034
S214006A60084B1B6F03F00703022B04D0032B05D043
S214006A70012B05D0FEE7044B18687047034BFBE775
S214006A800348704700800050D00A0020D40A002037
S214006A90002D310108B5FFF7E3FF054B1B6FC3F36D
S214006AA003330133B0FBF3F0024B186008BD00BFA0
S214006AB000800050CC0A00200048704700B4C40490
S214006AC0014B1868704700BFD40A0020054B1860B9
S214006AD0054B1B6F03F00703032B01D1FFF7DABF4B
S214006AE0704700BFD40A002000800050004870475E
S214006AF0002D3101014B1868704700BFD80A0020EE
S214006B00BFF34F8F0549064BCA6802F4E062134391
S214006B10CB60BFF34F8F00BFFDE700BF00ED00E086
S214006B200400FA0500239B6AB3F5C04F03D2196828
S214006B30064A914203D00023037083607047012207
S214006B4002709A689B694260F7E700BF07B0CD5EA7
S214006B5073B55E4B04461A781AB102221A7002B058
S214006B6070BDCDE900220028F9D001261E701DF068
S214006B70C4FD574D574B186018F0EAFF2B785BB9E9
S214006B8000F024FC40B954480823544A544900688D
S214006B9015F070FB00B92E70524B5A6E62619B6EF8
S214006BA0514AA3614FF40043936603F18843596842
S214006BB0E1614E499960196E2160596E6160D3F8A3
S214006BC07011A160196CE160596C21614849086C2C
S214006BD01864496C5964012151664FF4005191665E
S214006BE01A6E56044BD54349CA68D407FCD45B6E6C
S214006BF05A0449D5404AD36B13F0430FFBD13F4BA1
S214006C001A68531C46D04FF4001393403C4A136650
S214006C1004233B4C23664FF4806323661DF002FC7E
S214006C2001300ED01DF0FEFB40F20113984208D052
S214006C304FF4804323664FF4004323661023C4F8C2
S214006C40703110232E4C684623664FF4005323669B
S214006C504FF0804323664FF4804301A963661DF01E
S214006C60C6FB009B2366019B63662B78002B3FF4D4
S214006C7076AF1A4B1A6822665B6863666FE721492F
S214006C80CA68D007FCD4B2E71F4AD36B13F0430F91
S214006C90FBD1B4E71D4B1B78002BB9D14FF48072A3
S214006CA0114B5A661A4A52681AB94FF40011144A20
S214006CB011664FF400725A66164B5B68002BA7D11C
S214006CC04FF480020E4B1A66A2E700BFC3270020CF
S214006CD0C127002060120020E40A0020581200207D
S214006CE000710800008000500090005055CEAC00A7
S214006CF000C00054000004400000024CDC0A0020E3
S214006D0000900044000004500000025CC2270020EF
S214006D1000C0055000000650F8B5284D04462F78F0
S214006D20012F02D001232B70F8BD0028FCD01DF0E7
S214006D3079FB0130224E0AD01DF074FB40F201139D
S214006D40984204D01F4A7766D368DF07FCD44FF416
S214006D5000531D49B366CA6B12F04302FBD121688B
S214006D601A4B196661685966A168C3F87011E16824
S214006D70196421695964E169C80748BF9A60144BD1
S214006D801A6801320DD1134A127852B9124949686D
S214006D90C90748BF1A60114A5268D20744BF012289
S214006DA01A6062690E4B5A66A2699A6618F0D8FE97
S214006DB00C4B18681DF0A7FC0023B4E7C32700207F
S214006DC000900040000004400000024C0080004498
S214006DD0DC0A0020C227002000C005500000065034
S214006DE0008000506012002070B50024A36AB3F53E
S214006DF0C04F22D21A68124B9A421ED1114E3378D7
S214006E0013F0FD0517D11048FFF7A2FE08214FF436
S214006E1080330E4A0E48C2F88011C36011600D4AD6
S214006E201361AB6ADB69984704460748FFF774FFAF
S214006E300CB901233370204670BD4FF48174FAE715
S214006E4007B0CD5EC22700203812002000E100E027
S214006E5000A000440090004413B51F4B1B7803B9F4
S214006E60FEE700231D4CCDE900336A4608231C4983
S214006E70206815F0FFF9F0B91A4AD2F84031D2F876
S214006E8040211F2B4FF0010310D9203A9340019A5E
S214006E901343019308236A461149206815F0A0F9A8
S214006EA04FF00053104A1A60FFF72AFE9340009AEC
S214006EB013430093EEE70D4B9842F1D1094AD2F8FE
S214006EC04031D2F840211F2B4FF0010302D9203A5F
S214006ED09340DEE79340ECE7C3270020E40A002057
S214006EE000710800008000440B020FF00BE000F079
S214006EF005490A681318054883428CBF4FF0FF32D5
S214006F000B601046704700BFE00A0020008000209B
S214006F102DE9F04F9A46564B85B01B7806460F462D
S214006F201546DDF83C909DF844B0DDF85080002B07
S214006F3000F08D80072A00F28C800E9B002B00F05C
S214006F408880B9F1000F00F08480129BB3F5006FC3
S214006F507FDC012802D1109B002B7AD0454B03EB37
S214006F6005131B7B002B76D0434C1022002168466D
S214006F7028F0A8F804EB45141022002F59D1394602
S214006F80204628F09FF843F210036380BBF1000F01
S214006F9003D1E37843F00303E370374A0E9B02EB1A
S214006FA0451CCCE90193129B6901013BC3F30A001F
S214006FB09DF84C30012E03F003034FEA836343EA47
S214006FC0001E53582D48CDF800A000EA03004EEAF4
S214006FD00003535041D113230CF1100ECCF80C30A3
S214006FE09CE80F008EE80F006FF00301DCF81C2011
S214006FF0109B61F39F02012FCCF81C20CCF81430B4
S21400700003D1CCF81890CCF804300027194A29018F
S21400701002EB051342F80180159A28465A60694625
S21400702022469F605E7301F005F9384605B0BDE85C
S214007030F08F0021204628F045F84FF44473638013
S214007040BBF1000FA9D1E37843F03003A4E70C4866
S214007050ECE70C48EAE70C48E8E7B8F1000FD4D1B3
S2140070609CF8023068F304138CF80230CDE700BFBA
S214007070C427002064120020E41200200F80FFF3D3
S214007080028000F0018000F0078000F038B5124B57
S21400709005461B78DBB1E0B11DF02FFB0F4A00233D
S2140070A01146147B54B92B6001251A0101EB03131A
S2140070B01D738C501DF027FB204638BD0133082B6E
S2140070C002F11002EDD11DF01EFB0548F5E705485C
S2140070D0F3E70548F1E700BFC4270020641200204C
S2140070E0048000F0028000F0018000F013B51DF06F
S2140070F004FB00230B4A147B7CB90133082B02F1F6
S2140071001002F8D1019001F037F8074B01981C7077
S2140071101DF0F9FA204602B010BD1DF0F4FA03483F
S214007120F9E700BF64120020C4270020058000F0A5
S2140071300D4B10B51B78044693B1072812D81DF0E6
S214007140DCFA0A4B03EB04131A7B2AB100241C73E7
S2140071501DF0D9FA204610BD1DF0D5FA0448FAE70E
S2140071600448F8E70448F6E7C42700206412002025
S214007170068000F0028000F0018000F0154B13B589
S2140071801868002301908DF804301DF0B6FA124BF3
S2140071901C7824B11DF0B7FA104802B010BD0122C9
S2140071A01A701DF0B0FA0E4B01A81C731C7783F8FA
S2140071B02C4083F83C4083F84C4083F85C4083F8CE
S2140071C06C4083F87C4008238DF8073001F000F807
S2140071D02046E2E7DCF60200C4270020038000F029
S2140071E0641200200A4A08B512785AB107280BD84C
S2140071F0084A02EB00131B7B43B1002100F0DAFFC4
S214007200002008BD0448FCE70448FAE70448F8E70D
S214007210C427002064120020028000F0018000F0E5
S214007220078000F00A4A08B512785AB107280BD82A
S214007230084A02EB00131B7B43B1012100F0BAFFA2
S214007240002008BD0448FCE70448FAE70448F8E7CD
S214007250C427002064120020028000F0018000F0A5
S214007260078000F00A4A08B5127852B107280AD8F3
S214007270084A02EB00131B7B3BB101F029F8002003
S21400728008BD0548FCE70548FAE70548F8E700BFEB
S214007290C427002064120020028000F0018000F065
S2140072A0078000F00D4B1B7893B1072812D889B1E0
S2140072B00B4B03EB00131B7B73B10A4B1A6D0123B8
S2140072C003FA00F010401ABF00200B7008707047D9
S2140072D0054870470548704705487047C427002092
S2140072E06412002000000450028000F0018000F0CC
S2140072F0078000F00B4A10B512780C4662B10728DA
S2140073000CD859B1084A02EB00131B7B43B100F0BE
S214007310F1FF2070002010BD0448FCE70448FAE79F
S2140073200448F8E7C427002064120020028000F01A
S214007330018000F0078000F0204B2DE9F0471F6D1C
S2140073405A6D1F4C174010D54FF000411D4A11656D
S214007350D868C0F304200301E35804EB00125BB3C3
S214007360BDE8F04700215268184701260025DFF8DF
S2140073705480DFF85490374217D02368C8F850601E
S2140073809BB1A168284601316268A1609847637B7B
S214007390012B0AD148B909EB45131A7B60F3410269
S2140073A01A731A7F60F341021A770135082D4FEAE7
S2140073B0460604F11004DED1BDE8F0870000045054
S2140073C06412002000200450E4120020024B1968CA
S2140073D0024B186814F02EBEE80A0020E40A0020CB
S2140073E037B5920004460D46019227F0EDFF431C88
S2140073F00BD060B929462046019A27F02CFE0028BB
S214007400044808BF002003B030BD0348FBE703482C
S214007410F9E700BF10E000F021E000F024E000F003
S21400742010B5044627F0C0FF431C10D088B901F001
S21400743025F8234620F003002044984201D100207E
S21400744010BD53F8042B0132F7D00348F8E7034881
S214007450F6E70348F4E700BF0EE000F021E000F096
S21400746024E000F008B51DF041F9014B186008BD96
S214007470241A0020014B18681DF03CB9241A00207D
S214007480044BD3F88420D206FBD4D3F88400C0F390
S214007490811070470040005038B5104B0546D3F8B1
S2140074A020310C4603F00303022B0BD0032B0DD028
S2140074B0012B0FD1FFF7CEFA052305B1286004B1E2
S2140074C0236038BDFFF7FCFA0323F6E7FFF70EFB51
S2140074D00223F2E701230020EFE700BF0080005000
S2140074E073B50D4600210E4B0191D3F88041064638
S2140074F004F00304012C09D0022C0CD00C460EB16B
S214007500019B336005B12C6002B070BD01A8FFF787
S214007510C3FF0F24F3E7FFF7E9FA0190EFE700BF98
S2140075200080005038B5184B0546D3F824010C46A9
S21400753000F00700062805D8DFE800F0230B131B31
S2140075401F0F17000023184605B1286004B12360FA
S21400755038BDFFF77FFA0523F6E7FFF77BFA062329
S214007560F2E7FFF7ADFA0323EEE7FFF7A9FA0423E5
S214007570EAE7FFF7BBFA0223E6E71CF030FF072333
S214007580E2E70123E0E700BF0080005038B5104B6B
S2140075900546D3F840310C4603F00303022B0BD00C
S2140075A0032B0DD0012B0FD11CF01BFF092305B1B7
S2140075B0286004B1236038BDFFF79CFA0823F6E77D
S2140075C01CF012FF0B23F2E701230020EFE700BFB9
S2140075D00080005038B5144B0546D3F800020C4620
S2140075E000F00700042804D8DFE800F01B0A0E129B
S2140075F016000023184605B1286004B1236038BD84
S2140076001CF0EFFE0923F6E7FFF774FA0823F2E70B
S2140076101CF0EAFE0B23EEE7FFF73CFA0E23800A87
S214007620E9E70123E7E700BF0080005038B5104BBC
S2140076300546D3F840320C4603F00303022B0BD06A
S214007640032B0DD0012B0FD11CF0CBFE092305B167
S214007650286004B1236038BDFFF74CFA0823F6E72C
S2140076601CF0C2FE0B23F2E700231846EFE700BF2C
S2140076700080005038B5104B0546D3F860310C46F4
S21400768003F00303022B0BD0032B0DD0012B0FD1DD
S2140076901CF0A7FE092305B1286004B1236038BD9D
S2140076A0FFF728FA0823F6E71CF09EFE0B23F2E706
S2140076B001230020EFE700BF0080005010B40D4CFF
S2140076C00B46D4F8204204F00304012C0AD0022C06
S2140076D00CD008B1002101600BB100221A605DF8E1
S2140076E0044B70475DF8044BFFF7D6BE5DF8044BBD
S2140076F0FFF74CBF0080005038B50C4605461CF01E
S214007700F5FF064B9A6A82EA040101EA0504544032
S2140077109C62BDE838401CF0EDBF00BF00C00050C2
S214007720B0F5207F1FD009D8B0F5007F15D003D85C
S21400773068B1B0F5C07F0AD000200CE0B0F5607FDD
S214007740FAD10B4BD3F88000C0F3011003E0084BCE
S214007750186FC0F3033001307047054BD3F8900024
S214007760C0F30460F7E7024B186FC0F38020F2E71F
S214007770008000504FF400320E4B014610B500203A
S2140077809A66FFF7CDFF41F6713248430A490B4B24
S21400779088428CBF4FF480100020DC69DA639A6858
S2140077A022F4401202439A60E20344BF0022DA63E6
S2140077B010BD00BF00900050005A62020000035047
S2140077C0420910B510D0012A10D00B4B0B4C022AE0
S2140077D018BF234600F01F0051B103F58053012265
S2140077E002FA00F0186010BD1346F3E7044BF1E709
S2140077F003F50053F3E700BF688000506082005036
S2140078006480005008B580201CF093FE034B98421D
S2140078109EBF4FF48032024B1A6708BD005A6202C0
S21400782000A000501FB50023B0F5807F019377D0ED
S21400783028D8382800F094800BD82438092810D887
S21400784009280ED8DFE800F0676767670D0D620D40
S214007850377D52285FD008D83D283BD03E2800F020
S2140078608480019805B05DF804FB8028F9D1414B6F
S2140078701B6F03F00703013B032BF2D8DFE803F08E
S21400788044413F6CB0F5D06F5BD019D8B0F5A06F0F
S21400789066D00AD8B0F5806F3DD0B0F5906FE0D1D5
S2140078A0002001A9FFF73EFEDBE7B0F5B06F2DD054
S2140078B0B0F5C06FD5D1002001A9FFF767FED0E76D
S2140078C0B0F5006FECD00AD8B0F5E06F4DD0B0F54B
S2140078D0F06FC6D1002001A9FFF7CCFEC1E7B0F5D6
S2140078E0086FBED1234BD3F8003103F00303022BFD
S2140078F02CD0032B2ED0012B30D1FFF7E1F8032339
S21400790000E005230193ACE70223FBE7002001A972
S214007910FFF7E6FDA5E7002001A9FFF7BDFDA0E7FC
S21400792002934FF0E0231B695B0705D5FFF7B2F81B
S2140079300C230393039BE5E703A902A8FFF726FEA3
S214007940F8E7002001A9FFF745FE8AE7FFF7D2F81F
S2140079500823D7E71CF043FD0723D3E70123D1E72D
S214007960002001A9FFF7AAFE7BE7002001A9FFF788
S2140079705DFE76E7008000504FF40022034B5A6607
S214007980012203F580439A62704700BF00900050C2
S21400799008B5FFF747FF082811D00938012811D885
S2140079A04FF40012094B4FF6FF705A6603F5D833B2
S2140079B05B6A13F0010F18BF4FF4FA7008BD044B52
S2140079C01888FBE74FF6FF70F8E700BF00900050FE
S2140079D0C40C002070B504468020FFF723FF032860
S2140079E000F082804FF40022444B02215A6645F68E
S2140079F00E03434AC2F88030424B9962012103F5D8
S214007A0080539962936DD903FCD4D4E900131B0507
S214007A1043EA0163E17B94F822500B43217B94F800
S214007A20236043EA0143617B43EA0133A17B43EAD7
S214007A30811313619169D4E904031B0643EA80634A
S214007A4001F000410B43A17EE07E0B43217E43EA1A
S214007A500143617E43EA01239361E369126A002BC6
S214007A600CBF0021082122F00D0242EA030242EA7E
S214007A708002234B42EA01021A6294F820204FEA61
S214007A80421232D1986A94F8211020F0330042EA6C
S214007A900112024342F001029A621B4A996D32EAD1
S214007AA00101FBD1022217498A621A659A6D5200BB
S214007AB0FCD41869A26820F4700040EA02504FF027
S214007AC0004218610F4B9A611DB9022203F58053DC
S214007AD09A6216B901220D4B9A6294F824301BB1B3
S214007AE0074B0B4AC3F8802070BD996A21F033011A
S214007AF031430A4342EA4502EEE700BF00900050D9
S214007B0000C0005000D000500300014000E00050CC
S214007B10F1A7FFFF1E4B13B5996A9A6D12F4803FCA
S214007B2018BF01241B4A18BF9462022494629B6DFE
S214007B30DB0303D5164A936D9C07FCD50222154B32
S214007B40134C1A65A36D5B00FCD4134BA26993F922
S214007B50003022F47F020344000222F47F4280B207
S214007B6083F30803104340EA0340A061022001911A
S214007B70FFF7C2FDA36D019913F4803F05D00120E5
S214007B8002B0BDE81040FFF7B7BD02B010BD00BFA1
S214007B9000C0005000D00050C5270020014B93F9CC
S214007BA000007047C527002001221548154B816A42
S214007BB09A62826D02F00302032AFAD102229A62C6
S214007BC01A650F4B9A6D5200FCD40F4A986D32EA34
S214007BD00000FBD101220B4B1A65A3F580539A6D6A
S214007BE09007FCD49A6D9207FCD50222054B1A65C5
S214007BF0034A936D9B07FCD50320FFF77DBD00BFAE
S214007C0000C0005000D0005003000100014B188057
S214007C10704700BFC20C00204FF4001208B5184B86
S214007C205A660223174A5360936813F48033FBD1D5
S214007C30012822D1FEF744FF134B984215D003F5D6
S214007C40122303F5F863984213D0104B00EB800222
S214007C50400AB3FBF0F0520A0A4BDA6201221863BC
S214007C605A620022074B5A6008BD45F67A10084A49
S214007C70F2E745F61A00074AEEE75362F1E700BF5F
S214007C80009000500040025000F0490264666666AC
S214007C90D8B80500BBCF0500B0F5207F10B50C4660
S214007CA042D008D8B0F5007F33D003D888B1B0F5FD
S214007CB0C07F0ED010BDB0F5607FFBD11F4B013CDE
S214007CC0D3F8801021F0300141EA0414C3F8804054
S214007CD0F0E71CF026FC1CF0EFFC4FF48031184A4D
S214007CE0164B1167196F013C21F4704141EA0434C8
S214007CF01C67FEF7CFFE0446FFF7C2FBC0F1020189
S214007D0020461CF0D3FC00F02DF8BDE81040FFF72D
S214007D1079BD0A4B013CD3F8901021F0F85141EAA6
S214007D200464C3F89040C5E7044B013C196F21F486
S214007D30806141EA84241C67BCE700BF00800050D5
S214007D400090005008B50121022000F0D7F81CF082
S214007D50E8FB1CF0B1FC4FF48032014B1A6708BDFB
S214007D600090005008B54FF4C0701CF0E2FBBDE870
S214007D700840044988428CBF022101214FF420703C
S214007D80FFF78ABF80F0FA02034B5868C0F308007A
S214007D90003818BF0120704700ED00E0194B10B501
S214007DA01B6873B3184A5268012A2AD0174A8020E3
S214007DB0C2F80031FFF736FD05281FD14FF4C0701A
S214007DC0FFF7AEFC0128044604D102214FF4C07030
S214007DD0FFF762FF07220E4B1A610122A3F58053BC
S214007DE05A60094A1369DB07FCD5012C09D12146E4
S214007DF0BDE810404FF4C070FFF74EBF0122054BA0
S214007E005A6010BDD81A002000C0015000800050F3
S214007E1000E0015000D0015000224FF40031074B23
S214007E201A60074A516602F598325268012A02BF64
S214007E30044AD2F800211A60704700BFD81A002002
S214007E400090005000800050044A4178536F23F49D
S214007E50407343EA01235367704700BF0040005059
S214007E6010B5044608B1FFF7D7FF0E4A136943F072
S214007E700403136103F082F81CF048FC1CF036FC87
S214007E8027F09AFA1CF036FC1CF041FC03F098F838
S214007E901CB1BDE81040FFF781BFBDE81040FEF7FB
S214007EA0F9BD00BF00ED00E010B5044608B1FFF7CD
S214007EB0B3FF0C4A136943F00403136103F05EF842
S214007EC01CF014FC27F078FA1CF014FC03F078F889
S214007ED01CB1BDE81040FFF761BFBDE81040FEF7DB
S214007EE0D9BD00BF00ED00E0034A0179D36E23F050
S214007EF030030B43D366704700400050F8B5044685
S214007F001C4BD3F88420D106FBD4D3F88430C3F3BB
S214007F1081139C422CD0FEF7A3FD012C064602D10D
S214007F2021461CF0C3FB1CF0E1FB4FF00072124B25
S214007F3007465A6620461CF0EFFB4FF480630D4D53
S214007F40621E93402B676B6E9A0103D4D5F884307B
S214007F509B060AD538461CF0CDFB022C08D13046CD
S214007F60BDE8F84000211CF0A1BBD5F88430EAE754
S214007F70F8BD00BF004000500060005007B518B9BB
S214007F800191FEF76DFD0199064B1B7843B1064B38
S214007F90984205D8012003B05DF804EBFFF7AEBFAA
S214007FA00220F8E7C6270020005A62020278034B38
S214007FB0012100201A70FFF7E1BF00BFC62700208E
S214007FC04FF0004238B5264B26495A6601224A60D1
S214007FD04AF6CD3103F50B235D6C1964154030BBB2
S214007FE09968C9070BD4002401221F4B5A6015B1AB
S214007FF01E4B1F4A1A6426F0F9FB204638BD1A4964
S2140080008A601C4AD96ACC0705D4904201D107245D
S214008010EAE70130F6E79042E5D1F8E70132DC6A9C
S21400802014F0080406D08A42F8D10724DFE70022BD
S2140080301049F4E78A42F8D020220B4B0B495A62CB
S2140080400122A3F580539A6023460A4A486A8006AE
S21400805003D49342E9D00133F8E79342C7D1E4E76B
S2140080600090005000500950006009500040095030
S2140080703254FFFF40420F004FF0004238B5194B14
S214008080194C5A66012203F50C235A604AF6CD3382
S214008090656C23644378154093401343134AD363B7
S2140080A0A368827823F0740343EA0213C278002A96
S2140080B014BF042200221343A3600279837943EAA3
S2140080C0022323614279C37943EA0223636100787D
S2140080D0FFF776FF0DB1064B236426F087FB0120E1
S2140080E038BD00BF009000500040095000400050CE
S2140080F03254FFFFF8B504460D461F4616464AB1F1
S21400810001238B403021194A01FB0022FFB141F2C6
S2140081101001535004EB4403072D4FF00F014FEAB4
S214008120031317D8A80006FA00F281401048184436
S2140081301CF0F3FA56B9012130230C4801FA05F574
S21400814003FB040077B141F21003C550F8BD42F2BC
S2140081501001DEE7A5F10800800006FA00F2814073
S2140081600448E4E742F21003EFE700BF00C0035004
S21400817004C003500CC003504FF400120B4B10B554
S214008180C3F88020BFF34F8FBFF36F8F0024FF220A
S214008190074B21465C6520209A625C60FFF710FB67
S2140081A02146BDE810402120FFF70ABB00E100E0B1
S2140081B000000450044A054B002918BF134601224C
S2140081C002FA00F018607047402004504010045037
S2140081D010B5012104462020FFF7F2FA01212120E4
S2140081E0FFF7EEFA0122114B5A60227812069A60C7
S2140081F06178A27842EA01429A61FF229A620022DE
S2140082009A631A644FF000425A654FF0FF324FF4FB
S214008210001103F500531A65054AC2F88011E37889
S2140082201B01DBB282F81533116010BD000004504C
S21400823000E100E02DE9F04101250C46C3B2DFF86D
S21400824088E0D1F800809D408F7ACB7A94F80DC0F4
S214008250097BCEF850500EF5005E4EF820804FF0A9
S214008260300E184E1B050EFB006043EA074343EA38
S214008270415322F00302C0F860C0C36502671CF0D9
S2140082803CFA736D2B437365237A13B1336C2B431F
S2140082903364637A13B1B36B2B43B3632279A37948
S2140082A043EA0243084A93616179E37943EA01436A
S2140082B006498B61034B55639D64BDE8F0411CF095
S2140082C022BA00BF000004500020045000100450E2
S2140082D010B50124C0B284401CF00FFA044B5A6D4E
S2140082E022EA04025A659C62BDE810401CF00BBAF4
S2140082F00000045010B50124C0B284401CF0FDF903
S214008300074BDA6A224209D15B6B34EA03030CBFDF
S214008310012400241CF0F7F9204610BD0024F9E7DC
S214008320000004504FF40032054B9A6641F6713255
S21400833003F51C33DA63012203F50053DA60704755
S2140083400090005041F671320121064BDA6303F5C6
S2140083500052D1600022DA634FF40032A3F51833DE
S2140083609A66704700000350CB784A7810B55B01D8
S2140083700C7843EA82030A79234343EA02130C2269
S214008380424302F1B0421363012C02BF8A78024BCB
S21400839043F8202010BD00BFE880035008B54FF01A
S2140083A0B0435A6802B960B15B680BB11CF0C6F9FD
S2140083B04FF0B04130B10120074B58601CF0BEF9B9
S2140083C0C86008BD1CF0BAF90223CB601CF0B6F9F1
S2140083D00122024B5A60F4E70010005800200058B3
S2140083E04FF0B0435B6870B50BB11CF0A7F90121E4
S2140083F0104B4578596083780679002BC37814BFF4
S21400840002240024002B14BF042200224379DB0040
S21400841043EA06132B43234313434FF0B0429360C3
S214008420054B59600378002B14BF0B460223D3601C
S21400843070BD00BF00200058001000584FF4803276
S214008440064B5A6603F5E6235B69C3F38512827012
S21400845003F03F021B0B4270037070470090005001
S214008460014B986CD96C70470080E00F024B18687F
S214008470C0F30740704700BF0080E00F0120034BA9
S2140084809B680A3303F01F03984070470080E00F94
S21400849070B5054616461C4621B94FF420701CF0F0
S2140084A048F80146402C1BD003D8DCB1202C1BD04A
S2140084B070BD602CFCD1042303FB06F2560806EBC5
S2140084C04113B3FBF2F3094A203B02EAC303AA684E
S2140084D022F06002AA60AA681443AC60EB61E7E78A
S2140084E00623E9E71023E7E70823E5E7F8FF7F0020
S2140084F0012200F5805310B55A6040F6AA6341F297
S2140085000502436100230E498360C365C26000F51F
S21400851000520361C361C36491640A49836588425B
S21400852002D0094CA04207D18842036502D0064B10
S214008530984201D1002343650123536010BD00BF5C
S214008540FFFF010000C005500000065070B50D4644
S214008550FFF7CEFF012300F580567360AB7C044620
S2140085601BB1836843F080438360EB7C5BB1354A84
S2140085702B7D944245D1A2F51032C2F88C31E36DC2
S21400858043F08003E3652A8A6B7B20461343EA891F
S2140085901343E3602B7BD5E90112FFF779FF6B7D70
S2140085A01BB1A36843F48033A360AB7D1BB1A36803
S2140085B043F40043A360EB7D2A7E1B07120502F4FA
S2140085C0E00203F0E0431343A365697E1D4A8B1E59
S2140085D0012B1D4B1FD894421BD002F580429442BB
S2140085E00CBF01224FF0FF3203EB4213022041F290
S2140085F01C620329985020D10423F3652B7863610D
S21400860070BD124A944204BFA2F52032C2F89C31D3
S214008610B5E70022E8E794420DD00C4A94420CBF1E
S21400862001224FF0FF3203EB4213022042F21C629B
S21400863001299850DFE70022F5E7042204F50053ED
S214008640DA65DBE700C0055000C0035000000650A6
S21400865038B50446054D26F0EFF80FCC0FC594E864
S214008660030085E80300002038BD00BFDC1A0020A8
S21400867047F6FF739A42F0B566D0012966D8344DA6
S214008680CF0015F8313005EBC100012B847813D1EB
S2140086900025C3781B1B9D4202D3E018C0B2F0BD74
S2140086A0591B4668A3EB510136F911609642D4BFB8
S2140086B00D4601F1FF33EEE740680028EFD0B0F931
S2140086C00030934204DBB0F902309342B8BF134641
S2140086D082883D44FF2A19BFC8214FF0280CB0F904
S2140086E00610B0F908C0A1EB03020CBF0126002655
S2140086F092FBFCF26D78324412B2954201DD002AFC
S21400870001DA6A1E12B24FF47A7700EBC206F188DD
S214008710B668013213FB016112B221EAE1715C31E5
S2140087209542B1FBF7F104DD00EBC206B6888E4237
S214008730EBD200EBC20232F8040C884228BF08468F
S214008740A04238BF2046A9E7FF20A8E70020A6E7FA
S214008750DC1A00200129F0B553D82B4800EBC104E1
S21400876010F83110636801290FD1E078A4789042A0
S21400877094BFC4EB0001C4EB0201001BCAB28242E4
S214008780C8BF002233F91200F0BD002B39D0A17803
S214008790914202D3B3F90200F6E7E178B3F900009C
S2140087A09142F1D999886478A1F1FF06013C7142A3
S2140087B003F10405E4B2714103F10C071FFA82FCD1
S2140087C0CEB2B44216D805EBC1014FF47A756A43AF
S2140087D0B1F902404968521A04EBD47102EB610207
S2140087E092FBF4F29042CFDBB3F902009042CBDC6E
S2140087F010B2C9E737F831E04E1CE645E3D3314600
S214008800DEE70248C0E700BFDC1A00200080FFFF5A
S21400881008B50448FFF71CFFBDE80840012026F015
S2140088200FB800BF04F7020000487047C60C0020CF
S2140088307FB51422002101A826F044FC044B01A9B0
S2140088404FF0FF30029326F031F807B05DF804FBD6
S214008850006A18001B0603F0706300F00F000902A0
S214008860034301F47061120402F470220B431343B5
S214008870014A1360704700BF0020025C60B50546E1
S21400888019B10139B1F5806F10D2094EF06810F4B5
S2140088908030FBD143EA0121120741EA050302F0CA
S2140088A08052134343F00043736060BD0120FCE731
S2140088B00020025C0122054B9A60DA68D203FCD4E1
S2140088C0D86820F00F000004000C70470020025CFF
S2140088D0014B1868704700BF0040025C014B5868A7
S2140088E0704700BF0010025C014B186B704700BF5A
S2140088F00010025C014B1868704700BF0010025C55
S214008900014B9860704700BF0010025C014B186472
S214008910704700BF0010025C014B5864704700BFF0
S2140089200010025C014B5863704700BF0010025CE9
S2140089300022014B1A6070470010025C024A13685E
S21400894043F00103136070470010025C43F2040218
S214008950014B1A60704700BF0010025C024A1368A1
S21400896043F03003136070470010025C044B1A6833
S21400897042F480721A601A6822F480721A60704795
S2140089800010025C024A136843F480631360704769
S2140089900010025C034A136823F4702343EA004085
S2140089A0106070470010025C044B1A6902605A6936
S2140089B042609A698260DB69C36070470010025C9F
S2140089C00268044B1A6142685A6182689A61C268FA
S2140089D0DA6170470010025C024B1A6BD207FCD4B7
S2140089E0186270470010025C024B186B00F00E0015
S2140089F0704700BF0010025C82B01FB507930A9B49
S214008A0004AC8B4228BF0B4604E907001048D1008F
S214008A10079948BF03330160099948BF23F0030351
S214008A2023F0704301F0E041194341F000518160AA
S214008A30002102F0E042019C134343F00053C16062
S214008A4004618361416304B0BDE8104002B0704722
S214008A500000025C3F22034B1A631022DA610322F5
S214008A609A6370470000025C024AD36B9B07FCD4F3
S214008A70704700BF0000025C034B986A10F02400A9
S214008A8018BF0420704700BF0000025C08B5FFF75F
S214008A90F3FF064BDB6B23F47F4323F0EF03034324
S214008AA01EBF0122024BC3F8FC2F08BD0000025C6B
S214008AB000F0FF3F032208B5054B186019615A63A2
S214008AC0FFF7C8FFFFF7D0FFBDE80840FFF7DEBF9F
S214008AD00000025C42680346182A10B50AD0202A15
S214008AE01DD0102A2BD1174AD2F80424D4010AD458
S214008AF0012013E0134AD2F804249001F8D50A683E
S214008B0042F008020A6010481A6882424FF00000DD
S214008B100ED10A6842F040020A60586010BD094A49
S214008B20D2F804245201E3D50A6842F00402E9E7C9
S214008B30064CA242F2D10A6842F08002ECE7072017
S214008B40ECE700BF0000025CC7270020C827002013
S214008B500B4607B50749D1F80414C90708D5002104
S214008B6000920246084600F05BF803B05DF804FB8E
S214008B700120FAE70000025C1346064AD2F80424F5
S214008B80D20504D50A46014600201BF0F3BF01209B
S214008B90704700BF0000025C13B5084CD4F80444CC
S214008BA0E40508D5009313460A460146002000F067
S214008BB061F802B010BD0120FBE700BF0000025CB8
S214008BC013B5084CD4F80444E40508D500931346BE
S214008BD00A460146002000F071F802B010BD0120E0
S214008BE0FBE700BF0000025C70B504460D46164663
S214008BF08CB00A4A09AB07CA83E807001A46214622
S214008C00CDE90563CDE90333CDE9013300954FF493
S214008C1080301BF0D3FE0CB070BD00BF88F702009A
S214008C20F0B51C465B6815468DB01A07129E1AD121
S214008C30CBB17268934216D10C4B0D4A53F8217093
S214008C4009AB07CA83E807001A462946CDE905336B
S214008C50CDE90333CDE90163009447F480701BF03F
S214008C60ADFE0DB0F0BD0720FBE700BF94F7020095
S214008C7088F70200F0B516465A688DB0102A0D46E1
S214008C80129F15D17A68102A12D10A4A09AC07CA6F
S214008C9084E8070022462946CDE90547CDE9034486
S214008CA0CDE90144044800961BF088FE0DB0F0BDE7
S214008CB00720FBE788F7020030000100F0B51646F3
S214008CC05A688DB0102A0D46129F15D17A68102A60
S214008CD012D10A4A09AC07CA84E807002246294688
S214008CE0CDE90574CDE90344CDE901440448009676
S214008CF01BF064FE0DB0F0BD0720FBE788F702000E
S214008D001000010082B070B586B0149D03AE202D11
S214008D1086E807000B9359D805EB85038B4203D0F2
S214008D2006236B438B4253D10C9BAB4250D10F9B17
S214008D30B3EB450F4CD1129A934249D101222946F2
S214008D402220159BFFF79AFD044630BB03460622F9
S214008D500E210C20FFF77EFD0123CDE900332B46C4
S214008D6096E807001BF0C7FD0E230BAA009307CA60
S214008D702B461BF00BFD0C23164C00930EAA2B461D
S214008D8007CA1BF033FD636823F07F0343F0260316
S214008D906360FFF78FFD30B10624204606B0BDE8BD
S214008DA0704002B07047636823F07F0343F02203ED
S214008DB06360FFF77FFD04460028EDD1062311AA65
S214008DC0009307CA2B461BF044FDE6E70124E4E7C0
S214008DD00724E2E70020025C70B598B0002843D074
S214008DE02C4C08AD0FCC0FC50FCC0FC50FCC0FC544
S214008DF094E80F0085E80F006D4604AE04F11003FA
S214008E0020340FCB85E80F0094E80F0086E80F00AB
S214008E10FFF7ACFD0420FFF7BDFDFFF797FD3046DA
S214008E20FFF7CEFD002408AE56F8040B0134FFF71A
S214008E30D3FD102CF8D1FFF751FD0328FBD90024F1
S214008E40FFF776FD2646FFF743FD55F8043B01364F
S214008E505840042E44EA0004F5D12CB10122062025
S214008E600D4B1A7018B070BDFFF780FD0820FFF795
S214008E7047FD0020FFF74AFD0720FFF74DFD4FF4A2
S214008E800070FFF74FFD0820FFF784FDFFF756FD43
S214008E900020E7E770F80200CA27002008B5FFF7B1
S214008EA065FD0122014B1A7008BD00BFC9270020CE
S214008EB030B589B005AC84E80700FFF715FDC3059B
S214008EC001D5FFF7EBFF0A4D2B781BB11BF0CDFF4A
S214008ED000232B70074B069AD3E901018DE80300A7
S214008EE002921B6894E807001BF0C8FE09B030BD6C
S214008EF0C9270020D0F802001FB51BF0B6FF0446B5
S214008F0030B1012206240D4B1A70204604B010BD65
S214008F10FFF7DEFC0090FFF7DBFC0190FFF7D8FCC4
S214008F200290FFF7D5FC03906846FFF749FDFFF770
S214008F30B5FFFFF713FDFFF725FDE6E7CA2700207C
S214008F4005289ABF014B185C00207047DCF8020029
S214008F5030B5154B87B00293144B0390049346F636
S214008F6011030D46059300F06DF91428044616D13A
S214008F7068461CF032F84FF0A843032202A95A6351
S214008F8019601D619A63DA6B9207FCD1142C02D12A
S214008F9068461CF030F800F089F9044601E0002825
S214008FA0E9D0204607B030BDF41A002004000020A7
S214008FB02DE9F04FB1B005468C46E9466E4F3B9E14
S214008FC0DDF8F8E0409C07F1100AC8463868796872
S214008FD00837A8E803005745C146F6D10EEB02084D
S214008FE0C8F1000909F00F09002E00F0AF807742A3
S214008FF007F00F070121DDF8FCB0C4F1100ACDF828
S21400900010B0059144F0005106914FEA0A2101F490
S214009010F85141F02101079106B96B460893002DDF
S21400902040F09680002C00F0938004AB0993002E4D
S21400903000F0908046F000530A93002D40F08D809B
S214009040002C14BF0123212343EA07230B9308A90E
S21400905042F00053CDF830C03D980D910E934FEA84
S214009060092343F041030F93109002B10CA9002A84
S21400907016BF00224FF00052412342EA0E02119121
S214009080129213933C9B3D4A149310AB15933C4BA2
S2140090900021169340F6110317933A4B002D08BF94
S2140090A01346189314AB1993374B10221A931123B7
S2140090B01B931CAB184626F005F801221D924AF0B9
S2140090C080421E9200220346239205B9EB46102CDE
S2140090D008BF01230DF1900A102200215046CDF85A
S2140090E080B02193229425F0EDFF002C37D020ABE2
S2140090F0002125938F4218BF534647F080422692A0
S2140091003A9A2CA88A422892299313460CBF4FF00D
S21400911080430B46102233432B912A9325F0D2FF2F
S214009120FEB95346C8442D932CA948F0804318A88E
S2140091302E93FFF70DFF30B92DB90346A34212D187
S214009140002818BF2C2031B0BDE8F08F102751E75B
S21400915001236BE747F000536EE7212374E70123F2
S214009160C6E728ABDEE703F1C0026A4412F8C02C5B
S21400917001331043E2E700BFE2F80200F4F8020011
S21400918010000020F8F8020004000020F0B5C02906
S2140091909FB0249E4FD0B1F5807F04D0802941D067
S2140091A029201FB0F0BD40F2344440F21445002E92
S2140091B008BF2C462127102501940124029603940B
S2140091C004950597259F069706B102AC07940124DF
S2140091D0089509940A9221220B940C950D92174A31
S2140091E00AAC0E92164A0F94109242F61102119291
S2140091F0129313941495159201AA1692CBB112AB42
S2140092001793042318931123199316AB1A901B93E4
S21400921040F61103C9081C911AA806A91D93FFF76A
S21400922097FEBEE7002E14BF4FF486644FF48264A8
S214009230C0E70EABE4E70F20B3E700BFFCF8020080
S2140092401000001038B5164B5A6E42F004025A66EB
S214009250D3F8802242F00102C3F88022114B5B68EB
S214009260C3F3080343B14FF0A842D36B13F0430F88
S214009270FBD11424204638BD4FF0A843DC6B14F015
S2140092804304FBD1084D2B681BB90421284602F085
S2140092909DFD2B68013343F000432B60EAE700BFD7
S2140092A00080005000ED00E0F41A0020014B002082
S2140092B05B68704700ED00E04FF40052034B00205F
S2140092C09A660322C3F86022704700BF00900050E1
S2140092D008B5FFF70FFBC30708D5FFF785FB062881
S2140092E004D00A28F5D1FFF7D9FDF2E74FF4005273
S2140092F0034B00209A660322C3F8602208BD00BF15
S21400930000A000501FB54FF40052164B9A66032279
S214009310C3F86022FFF7EEFAC30710D401201BF053
S214009320B1FD002814BF6FF092040024FFF7D0FFB1
S21400933000280CBF20466FF0920004B010BD10222B
S2140093400021684625F0BEFE6846FFF72DFBDDE9E6
S21400935000321343029A1343039A1343DED00024C9
S214009360E4E700BF00900050012300F01F02A0F5C4
S21400937006200949A0F550604009934051F8202086
S2140093801A4341F82020054951F8202022EA030319
S21400939041F82030704700BFF81A00200C1B002050
S2140093A00121A0F506230F4AA3F550635B0900F0E0
S2140093B01F0001FA00F052F8231008430A4942F849
S2140093C02300D1E90030034488680344C86809696B
S2140093D003445B1802BFC2E90033C2E902331361DB
S2140093E0704700BF0C1B0020F81A00202DE9F04F34
S2140093F0A9B002921D46DDE9326704460822CDE98F
S2140094000301414021FA02F34B40980702F108029B
S21400941018BF9B00202A1C44F4D18123B4FBF3F32D
S21400942003EBC313E41A7A4B04F506241B7804F501
S2140094305064002B40D1FDF7C9FF014620B16FF004
S214009440910029B0BDE8F08F4022059008A825F0CD
S21400945039FE4022059918A825F034FEDFF8C89199
S214009460DFF8C8A14B4603F10F0B102208A9DAF863
S2140094700000CDF800B0059324F07CFF00220146E2
S214009480059B09F110090DF1200891424CD1CDF849
S21400949000B01022DAF8000018A924F074FF4FF08C
S2140094A0000B03460DF160085B4549D1594B9945C1
S2140094B0D8D10122564B1A704FF081084FF00009A0
S2140094C0DFF868A1A4F506235349A3F550625209B4
S2140094D051F8221004F01F0C21FA0CF1C90744D4ED
S2140094E04E4951F8220020FA0CF010F0010030D05E
S2140094F0B9F1000F08BFA146A3F6FF448123B4FBD1
S214009500F3F303EBC313E41A04F50624B8F10108D9
S21400951004F55064D6D1029BEBB1B9F1000F1AD016
S214009520349BC3F800906DE058F8040BCDE9062391
S2140095300591FFF719FF069A079B05990132A4E7E4
S21400954058F8040B05930BF1010BFFF729FF059B59
S214009550AAE7029B13B96FF08B0072E7349BB9F150
S214009560000F4ED0C3F800906BE70EB100233360B7
S2140095700FB100233B604FF0100B00232A46214614
S214009580DAF80000CDF800B012F0C2FE08BB0EB14B
S214009590C6F800B02B68224A934224D166B15FB168
S2140095A03B462146DAF8000018AA12F005FF80B9FB
S2140095B03B6832689B1A3B60D5E90223DDE903105D
S2140095C0834208BF8A4216D0A4F50624A4F6FF44B8
S2140095D094E7144B984206D01233984203D0133BBC
S2140095E09842E9D02BE72146DAF8000012F02AFF6D
S2140095F00028E1D0AFE7029B13B16B68012B03D0C4
S214009600349B1C6000201CE76FF0840019E700BF45
S214009610CB27002000710800F81A00200C1B002041
S214009620105D175EFFDF00F0006D0800E40A002002
S2140096302DE9F04F87B08246894698461646DDF8F3
S21400964040B02AB1002B4ED040F26C739A424DD8EF
S214009650BBF1010F4DD8002406F110073946012052
S21400966005941CF04AF80546002845D021463A469F
S21400967025F028FD05ABCDE9014300942B460122D9
S21400968050464946FFF7B2FE044680B110F18C0FF3
S21400969008BF6FF08D043A460021284625F012FDDB
S2140096A028461CF03BF8204607B0BDE8F08F144B68
S2140096B0C5E902A92B60C5F804B02EB13246414672
S2140096C005F1100025F0D7FC0E483B462A460599C2
S2140096D0006812F085FD18B90598FFF745FEDAE731
S2140096E06FF09104D7E76FF08604DCE76FF0910423
S2140096F0D9E76FF08504D6E76FF08C04D3E700BF98
S214009700105D175EE40A00202DE9F0438DB0814617
S214009710DDE914780C4615461E469BB1B8F1000FDD
S21400972005D16FF0860420460DB0BDE8F083002F0B
S214009730F7D0B7F1005FF4D3C3F1005303F500434D
S2140097409F42EED81022002108A825F0BBFC00227C
S21400975007AB029305AB019306AB21460093484640
S21400976008ABCDE90522FFF741FE04460028DAD112
S2140097700599DEB1A94203D80029D2D115B1D0E7A8
S2140097800029FBD0491BB14228BF3146069B094839
S214009790C8F8001000913A46079900682B4412F06A
S2140097A0B7FD002818BF6FF09104BCE7A942E9D2C4
S2140097B0B7E700BFE40A002030B58DB00C4605467A
S2140097C01022002108A825F07DFC002207AB02939A
S2140097D005AB019306AB21460093284608ABCDE9BE
S2140097E00522FFF703FE0446D0B9099B012B1AD0C9
S2140097F0104B0799186812F025FEB8B90122079891
S2140098000D49A0F50623A3F550635B0900F01F057C
S214009810AA4051F823506A4041F82320FFF7C0FDC4
S21400982020460DB030BD6FF08404F9E76FF0910468
S214009830F6E700BFE40A0020F81A00202DE9F043FE
S2140098408BB01746DDE91545DDE913269C46DDE9B4
S2140098501738894621B96FF086000BB0BDE8F08353
S214009860002FF8D00EB9002CF5D1129909B9002AAC
S214009870F1D10DB9002BEED1B8F1000FEBD0254A8F
S214009880944544D10288B2F5105F40D14288B7EBC8
S214009890D20FE0D322F04001802902D0B2F5807FBB
S2140098A0D9D11CB92046C8F80040D6E7AE421CD233
S2140098B03219954219D29C42CDD8314622462846C6
S2140098C025F0E6FB2E4614F00F03C4D1CDE9019730
S2140098D0CDE90336CDE90543CDE907540993FFF7F3
S2140098E0EBFC38B16FF09200B7E79C42EBD96FF013
S2140098F08900B2E707AA04A901A8FFF729F90546D7
S214009900FFF7E6FC2843EDD1C8F80040A5E76FF066
S2140099108500A2E7004440042DE9F04FA9B0834635
S21400992017469A460E46DDF8C890DDF8D88029B965
S2140099306FF08603184629B0BDE8F08F002AF7D0EE
S214009940B9F1000FF4D0349B002BF1D0B8F1000F22
S214009950EED00024434B0CAD93E8070085E80700E3
S2140099603C22214619A8189425F0ACFB3288718851
S21400997002F4E040B0F5804FDAD03B4E3B480BEAAD
S214009980060646F01066864265D1B1F5807F62D144
S21400999047F212118A425ED106203549BAF11F0FEE
S2140099A00A69CB6800FB02F209680B93CDE90C123A
S2140099B00E94BDD9339B402BBAD9359B1F2B4DD95E
S2140099C009F1010220261292402299F800300F97E2
S2140099D0042B18AFCDE91324CDE915721096119417
S2140099E01794A5D1FFF768FC03460028A2D10B9B6D
S2140099F015AACDE9086305AB07CA83E8070002ABE2
S214009A0012AA07CA83E80700DDE910018DE8030003
S214009A100F9B95E80700FFF775F90546FFF758FC1A
S214009A2055EA000384D13D46349A20AE2C4603CC3A
S214009A30B44210605160254602F10802F6D10022B9
S214009A401046B9180132412A03D12022C8F8002056
S214009A5070E70870F5E76FF085036BE76FF0890332
S214009A6068E700BF88F702000000FFF60000020962
S214009A705CF80200F0B50F461D468DB000285AD09F
S214009A80002958D0002A56D0002B54D00388B0F8AE
S214009A9002C0194603F44F44B4F5824F18BF0023A2
S214009AA021F0FF01B1F5E24FDBB203D06FF0850085
S214009AB00DB0F0BD122B01D0172BF7D10CF107011A
S214009AC0B2EBD10F4FEAD10638D31F4A06ACBCF52D
S214009AD0807F07CA84E80700E8D1122B07D11B4B0A
S214009AE01A691B681344CDE9063200230893002345
S214009AF0CDE909760B93FFF705FC0028D8D1FFF7D0
S214009B00DBFB0028D4D1124B1149059302AB04901D
S214009B1083E803000CAB13E903008DE80300099B00
S214009B2094E807001BF030F80446FFF7D1FB20430B
S214009B3007D12E60BCE76FF08600B9E76FF08900AA
S214009B40B6E76FF09200B3E788F702005CF8020011
S214009B50A54E02002DE9F0438FB01D46DDE916C67E
S214009B60002863D0002961D0002A5FD0002B5DD08A
S214009B70BCF1000F5AD0002E58D00388B0F802E08F
S214009B801C4603F44F47B7F5824F18BF002324F056
S214009B90FF00B0F5824FDBB24ED0B7F5824F4BD107
S214009BA0122B01D0172B47D10EF10700B2EBD00FC6
S214009BB04FEAD0083AD34FEA4802571C674538D8D0
S214009BC0BEF5807F38D1122B18BF4FF000094FF03A
S214009BD0000308BF1B4CCDE9081805F1010114BFAE
S214009BE04C46D4F80C90CDE90B120A930D93FFF770
S214009BF063FBC0B9CDE9058902AB08AA07CA83E8AA
S214009C0007000EAB13E903008DE803000B9B94E8F6
S214009C1007001AF0D8FF0446FFF75AFB20430ED180
S214009C2004232B7037600FB0BDE8F0836FF086001A
S214009C30F9E76FF08900F6E76FF08500F3E76FF05D
S214009C409200F0E75CF802002DE9F04389B00D467B
S214009C5014461F46DDF8488020B96FF0860009B02C
S214009C60BDE8F0830029F8D0002AF6D0B8F1000F3E
S214009C70F3D0028802F44F43B3F5824F0CBF13466D
S214009C800023DBB202D06FF08500E8E7122B01D08C
S214009C90172BF8D122F0FF02B2F5E24F40D14288EE
S214009CA0C8F80020002A36D1E200C8F80020D8F80C
S214009CB00020B2F5807FE6D1122B09BF384B002278
S214009CC01A681B6905EB040608BFD218002318465D
S214009CD0224412F801CD16F8011D0843B1EB0C0121
S214009CE00CBF4FF0FF3C4FF0000CB5420CEA0303EC
S214009CF043EA0103EDD10028AFD0002BADDA109B6C
S214009D009C4249D822462946384625F0B4F9119B8C
S214009D1000201C60A3E70732B4EBD20FC7D09CE745
S214009D202A78042A99D1621ED2005208B2F5807FA2
S214009D30C8F80020A7D1122B05F1010318BF4FF079
S214009D4000094FF0400205934FF000030ABF144E7F
S214009D504E46D6F80C90CDE90623FFF7ADFA00285C
S214009D607FF47DAFCDF80C90D8F800300733DB08D1
S214009D70029308AB13E903008DE80300059B96E801
S214009D8007001AF0C9FF0646FFF7A2FA00287FF47C
S214009D9066AF002EB3D060E76FF089005FE700BFC4
S214009DA05CF802002DE9F04F8FB00546DDE918A9F2
S214009DB093461E46DDF868801C9F09B300B3B8F1D1
S214009DC0000F1DD0E7B1BAF1000F02D1B9F1000FB4
S214009DD016D1284B26F47E129A4247D128461BF00D
S214009DE03BF90446B0BB6B88BBEBD30F4FEAD302FC
S214009DF006D316F47C1FC6F3054504D0102D03D9F0
S214009E006FF0860426E010251B9B9D422BD800236E
S214009E10CDE901121022CDE905930DF12809CDE90F
S214009E20033ACDE90823CDF81C90FFF745FA04461F
S214009E3080B907AA04A901A8FEF79EFE0646FFF70A
S214009E4047FA044656B958B92A464946404625F0C8
S214009E5012F93D6020460FB0BDE8F08F6FF0920417
S214009E6000233B60F6E76FF08904F3E76FF08504A4
S214009E70F0E700BF0002C0032DE9F041069F0C4644
S214009E801646054610B309B302B9FBB96288B3EBB0
S214009E90D20F4FEAD20819D34C220021284625F0CB
S214009EA011F90D4B27F47E129A4212D120461BF070
S214009EB0D3F8044638B942463146281D25F0DBF86B
S214009EC0C5F824802F602046BDE8F0816FF0860438
S214009ED0F9E76FF08504F6E70002C0032DE9F041CC
S214009EE00E4614460546002840D000293ED012B93A
S214009EF00020BDE8F08103681F4823F47E138342E8
S214009F0037D1AF6BE7B1C7F1100807F1280042451B
S214009F10284404D225F0AFF83C44AC63E8E7424658
S214009F2025F0A9F81022103C3C19AA63E0D0284678
S214009F3005F128011BF0ACF80028DAD14644A863E6
S214009F40102C0CD9671E27F00F073A4631462846D4
S214009F501BF09EF80028CCD1E41BC9D03E44224614
S214009F60314605F1280025F086F8D6E76FF0860022
S214009F70BFE76FF08800BCE70002C0032DE9F0439E
S214009F8088461F4605468BB070B169B163B1036859
S214009F90234923F47E1088423ED113F47C1FC3F37A
S214009FA0054604D0102E03D96FF086042AE010264A
S214009FB096422BD8FFF780F9044618BBAB6B05F129
S214009FC02802CDE901236B6A2A1DCDE9042310235C
S214009FD0CDE9083007AB1A460390069005F13C0918
S214009FE001A904A8CDF81C90FEF7EAFD0546FFF788
S214009FF06FF904466DB928B932464946404625F001
S21400A0003AF83E6020460BB0BDE8F0836FF0890456
S21400A010F8E76FF09204F5E76FF08504F2E700BF0B
S21400A0200002C00307B56B46054A1068516803C3B3
S21400A0306846FEF721F8002003B05DF804FB00BF79
S21400A04000F9020013B50024064A6846536F43F031
S21400A0500103536700948DF80440FDF745FF204642
S21400A06002B010BD0040005030B58BB06C46174DA6
S21400A0700FCD0FC40FCD0FC495E8030084E803008E
S21400A080134BD3F84C21120317D4D3F85041E4B243
S21400A0908DF81940FDF782FD204480F308008DF806
S21400A0A018000C48FCF712FD6846FDF793FC3220BA
S21400A0B0FDF7ACFD00200BB030BD074B1C884FF6FB
S21400A0C0FF739C4208BF8C24E2E700BF08F9020039
S21400A0D00080E00F00F049020001E00F6FF004027C
S21400A0E0502110B50A480B4C12F0800FD3B21BBF9C
S21400A0F003F00F03043BA3181B1802F101020CBF68
S21400A10083F800131976402AEED1002010BD00BF58
S21400A11000ED00E000E100E010B504461AF0E6FAB3
S21400A120024B1C601AF0E6FA002010BD201B00202F
S21400A13010B51AF0DBFA034B1C681AF0DBFA20465F
S21400A14010BD00BF201B0020034B0222186800230E
S21400A1508068194619F08ABAF00B002030B514460C
S21400A160054687B010461BF09DF863690246834299
S21400A1703CBFD4E903315B181B1A7BB10F49284654
S21400A18003910021CDE90131012304940093D4E921
S21400A19000131AF077F9002007B030BD012262766E
S21400A1A094F82D20002AF6D084F835301321E36980
S21400A1B0204698472046636A9847ECE75DA1000072
S21400A1C02DE9F04788B004468846174699461AF0A7
S21400A1D094FA8246002F7AD0237E03F0FF02002BEB
S21400A1E000F0A28020461BF05DF86669B04205D1FB
S21400A1F0637ED4E903521544AD1B01E0F9D9851BF3
S21400A200BD4228BF3D461AF078FA94F82D3006462F
S21400A210002B6DD12A464046616924F02CFF636905
S21400A2202F462B44636121E0037803F0FD011129DA
S21400A2305BD1216B814205D1A3F111014B424B4109
S21400A24084F83430013F6369216B01328B4203F19D
S21400A250010308BF2363636195426069E4D1D4E9D2
S21400A2600323216B1344994200D122630025D4E9CD
S21400A270032361691344994208BF6261207A6576B8
S21400A280FCF7B0FF20461BF00DF86369834232D11D
S21400A290257694F82D30E568656103B12563204680
S21400A2A0636A9847214B2A46039300230293236947
S21400A2B0216801930123207A0093049463681AF0BE
S21400A2C0E1F8207AFCF7AEFF30461AF01CFA50464A
S21400A2D0C9F800701AF017FAD9F80030002B0CBF36
S21400A2E01B20002008B0BDE8F08708F8013BAAE76D
S21400A2F02F460022B0E70123207A23760DF11E01B7
S21400A300FCF7F8FF9DF81E30002BDAD00DF11F0188
S21400A310207AFCF7C7FF9DF81F100029D1D12246EE
S21400A320207AFFF71BFFCCE71746D0E75DA10000B9
S21400A330002808DB0123420900F01F0003FA00F0A2
S21400A340014B43F82200704700E100E0002809DBDB
S21400A3500122430900F01F0002FA00F0024A6033AF
S21400A36042F82300704700BF00E100E070B50446E5
S21400A3700568FFF7DDFE844202D10020FFF7CCFE21
S21400A38095F93600FFF7E2FF95F93630002B0DDB26
S21400A39001215A0903F01F0301FA03F3184920327A
S21400A3A041F82230BFF34F8FBFF36F8F95F9370018
S21400A3B0FFF7CCFF95F93730002B0DDB01215A094A
S21400A3C003F01F0301FA03F30D49203241F822304F
S21400A3D0BFF34F8FBFF36F8F287AFCF743FF287ABF
S21400A3E0FCF7A6FEFCF782FE00232846C4E90033ED
S21400A3F0C4E90433A360AB6ABDE87040184700BFE9
S21400A40000E100E02DE9F0410C461546064686B010
S21400A4104022002120461F4624F054FE95E8030003
S21400A42000232A692376EB6884E80300C4E9042342
S21400A4302A7DE36084F82C20AA7D2363012384F818
S21400A440343084F835300C9B84F82D2023620D9B25
S21400A450E76163620E9BA3622B7A84F836306B7AD0
S21400A46084F837302D4B346073602D4BB3602D4B22
S21400A47033612D4B73612D4BF360FCF77FFE38B1D3
S21400A4802B4B984204D01024204606B0BDE8F0813D
S21400A490002104F10800FCF7F9FD07460028F2D178
S21400A4A04FF00108234B3362234B84F83C80B361A2
S21400A4B0224BF3619DF8403084F8390084F83B3035
S21400A4C09DF83C30204684F83A30697D84F8388020
S21400A4D01AF0F8FE95F90900FFF738FF95F909001C
S21400A4E0FFF726FF164B0494CDE902732369CDE9E6
S21400A4F000836368E2682168207A19F0C3FF044687
S21400A5000028C0D195F90800FFF720FF95F908004C
S21400A510FFF70EFF3046FFF7FFFDB5E715530200C5
S21400A520C1A1000093520200995202006DA30000E0
S21400A530038000F069520200C55202009F520200DA
S21400A5405DA100002DE9F04101271C46594B86B05D
S21400A5500293594B0C9D0193584B904600930A4624
S21400A560CDE903772946564BFFF74CFF06460028F1
S21400A5707BD1236839462B6463683A206B64637A20
S21400A58085F84930237A85F84830E37A85F84B30E9
S21400A590A37A85F84A30637B85F84D30237B85F8AF
S21400A5A04C30E37B85F84F30A37B85F84E30FDF7C3
S21400A5B007F93B460422617A207AFDF79BFD3B466D
S21400A5C00222E17AA07AFDF795FD39466068FDF72C
S21400A5D0F7F888F8006041462068FDF7B7FF1422B8
S21400A5E0637C5B0103F1A04303F57033C3F81C26BC
S21400A5F0617A227A42EA0142C3F83426E17AA27AE4
S21400A60042EA0142C3F82C2685F8506098F81930C3
S21400A610032B4DD8DFE803F01A022D47012300274D
S21400A62085F8503000230222617B207BFDF762FD17
S21400A630637B227B617C42EA0342224B49015A50EB
S21400A6400422236803F58053DA65AFB9237A2A6CAF
S21400A65085F84830637A052185F84930D36C206840
S21400A66043F00403D3641AF071F8304606B0BDE830
S21400A670F081022385F8503000230422E17BA07B82
S21400A680FDF738FD022741F21C61627C0E4B03EB9E
S21400A69042104750E07BA17BB13241EA004103EB18
S21400A6A042139960D2E70323012785F85030B9E7B3
S21400A6B02326DAE73F54020033540200CB5402004C
S21400A6C0BF54020024D6035000C00350BFF35F8F70
S21400A6D0074B5A6A22F480325A62D3F8942022F04A
S21400A6E00102C3F89420BFF34F8FBFF36F8F7047FC
S21400A6F000ED00E070B52648264CFFF7E7FF8442E1
S21400A70008BF4FF08043244A18BF20F01F03D2F83A
S21400A710C01018BF203B21F0FF0141F0A001B3F1AB
S21400A720005FC2F8C0100CD31C4D1D4E296843F0C4
S21400A7300103C2F898100131C2F89C60C2F8A0303C
S21400A7402960844210D01548164B0268124923F03F
S21400A7501F0343F00303C1F89820C1F89C30124B46
S21400A7600132C1F8A0300260BFF35F8F05220A4BAA
S21400A770C3F894205A6A42F480325A62BFF34F8F6D
S21400A780BFF36F8FBFF34F8FBFF36F8F70BD00BFE8
S21400A790F40C0020CC0E002000ED00E0241B00206E
S21400A7A003000020EB0E0020E1FFFF3FF8B5144643
S21400A7B0FFF78CFF1F2C27D90027C2062A4D1CBF87
S21400A7C020F01F0020302A68CB06284B18BF21F047
S21400A7D01F01FCB2A24219D8D3F8C04020F01F00D7
S21400A7E024F47F4444F4807421F01F01C3F8C04071
S21400A7F040F00300C3F8982041F003010132C3F88B
S21400A8009C00C3F8A0102A6000201AE0C3F8984005
S21400A810D3F89C40D3F8A06024F01F04A04226F092
S21400A8201F0601D1B142EFD0B04201D8A14207D2F3
S21400A830D3F89840013724F0FF04C3F89840C8E7DF
S21400A8402820BFF35F8F0522084BC3F894205A6A6E
S21400A85042F480325A62BFF34F8FBFF36F8FBFF35D
S21400A8604F8FBFF36F8FF8BD241B002000ED00E074
S21400A870BFF34F8F0549064BCA6802F4E0621343E4
S21400A880CB60BFF34F8F00BFFDE700BF00ED00E0D9
S21400A8900400FA05054B1A782AB95B78002B14BF1A
S21400A8A00220032070470120704700BFD4270020F5
S21400A8B00329F8B598BF124B05460E468CBF0024F8
S21400A8C05C5C032805D8DFE800F002080B0E44F0B5
S21400A8D002040C4B1F684FB9F8BD44F00804F8E7B3
S21400A8E044F02004F5E744F08004F2E77B681A6839
S21400A8F0144203D0314628465B6898473F68EAE72B
S21400A90030F902004C1B002038B5104D2B78ABB147
S21400A9100F4C23781BB100F08BFB00232370002024
S21400A9201AF03DFE0B4C50B100F0D4FB0023012181
S21400A93020782B70FFF7BCFF0123237038BD01225F
S21400A940054B1A702278054B1A70F7E7D3270020BC
S21400A950CE270020CC270020D2270020D927002091
S21400A96010B519F0C3FE064B04461B781BB1BDE8B4
S21400A970104019F0BFBEFFF7C7FF2046F7E700BF3D
S21400A980CD270020002814BF0121FF21074A137895
S21400A9900B44137008D0064B1B78012B04D9054BCB
S21400A9A01B780BB9FFF7B0BF704700BFD427002055
S21400A9B0CC270020D227002070B519F097FE124E43
S21400A9C0054633789BB900F0B9FC044620B128460A
S21400A9D019F090FE204670BD0C4819F04CFD00F0B2
S21400A9E013FF0B4B1C6000F06DFD0A4B186000F067
S21400A9F009FA1AF0D6FD084B0024186001232846F1
S21400AA00337019F077FEE5E7CF2700204C1B0020B7
S21400AA10541B0020501B0020481B002000292DE955
S21400AA20F34114BF0121FF21254A00F1FF30135CDA
S21400AA300B4413543AD0234E3178012936D9FFF708
S21400AA4029FF0128044634D81F4F19F04FFE3B78E3
S21400AA501BB31E4D2B781BB901222A701C4A13709B
S21400AA60DFF8708098F8003033B1019000F0E0FA1B
S21400AA700023019888F8003019F03CFE01201AF0F7
S21400AA808EFD19F033FE2B782BB1019000F022FBDF
S21400AA90002301982B7000233B7019F02BFE3078B2
S21400AAA0A04203D02146FFF703FF347002B0BDE892
S21400AAB0F0810329F3D10228F1D11AF076FDEEE7F2
S21400AAC0D4270020CC270020D3270020CD27002025
S21400AAD0D2270020CE27002010B5044619F006FE27
S21400AAE0002C14BF0121FF21064A13780B44DBB269
S21400AAF01370B3FA83F3BDE81040034A5B09137082
S21400AB0019F0F8BDD7270020D627002068B519F021
S21400AB10EDFD094B06461B78012B04D819F0EAFD1B
S21400AB200025284668BD054B1D6800F01DFB054442
S21400AB30304619F0DFFDF4E7CC270020541B002038
S21400AB4038B54160044619F0D1FD05462146044853
S21400AB5019F094FC2846BDE8384019F0CBBD00BF7C
S21400AB604C1B0020054B1B685843054B00F5742012
S21400AB7000F23F20B0FBF3F0704700BF501B0020F0
S21400AB8040420F002DE9FF47EFF3108672B600E053
S21400AB9000BF19F0F0FB002800F09B80704D714F4D
S21400ABA02B7823B10020FFF7EDFE00232B70FFF774
S21400ABB071FE0446002800F09380841EE4B2012C47
S21400ABC040F29680FFF766FE0128804604D9664B61
S21400ABD01B780BB900F0BCF9644CDFF8B091207814
S21400ABE0DFF8ACA140450AD0002389F800309AF877
S21400ABF0003013B94146FFF75BFE84F8008099F8F1
S21400AC0000303BB12378022B04D1002389F80030B2
S21400AC1023F050FFB8F1010F0FD9DFF84C8198F8F8
S21400AC20003053B9524B1B7823B900F0FBF90122D0
S21400AC30504B1A70012388F80030207800F07EFA16
S21400AC409AF8003013B14C4B1B78237000E000BF1D
S21400AC5006B962B6EFF3108672B6484B1A7852B150
S21400AC6000221A70444B20781B78984203D10121A9
S21400AC702170FFF71DFE384600F09AFB19F086FBA0
S21400AC80804600288CD1384F89F800003B789BB16D
S21400AC90DFF8E0908AF8000099F800301BB100F069
S21400ACA0C7F989F8008000201AF079FC00284ED0F9
S21400ACB000F010FA00233B702B7823B10020FFF73A
S21400ACC061FE00232B7000212078FFF7F1FD0023A2
S21400ACD0237000E000BF06B962B604B0BDE8F08796
S21400ACE02B78002B3FF46EAFFFF74CFE2C7069E715
S21400ACF0002003A900F0A0FB044600287FF462AF02
S21400AD001F4B039A1B689A4205D80120FFF73AFEAC
S21400AD1001232B7056E71B4BD3F8008000F024FA73
S21400AD20039B80449845F0D200F036FA00280CBF0A
S21400AD3000230423039943F00203CDE90043384679
S21400AD402346114AA1EB08011AF030FC3AE701202D
S21400AD5000F0F4F906B962B6EFF3108672B6A2E711
S21400AD60D8270020281B0020D3270020CC2700202F
S21400AD70D7270020CE270020D9270020D127002063
S21400AD80481B0020541B002061A90000D627002085
S21400AD90D227002010B519F0A9FC0022044B1C781D
S21400ADA01A7019F0A7FC00F075FC2043C0B210BD65
S21400ADB0D027002073B5114E04463378834212D054
S21400ADC000238DF8043080B102238DF8053001A8E9
S21400ADD0FDF73AF80A4D402054B1FFF7C3FE2B6842
S21400ADE0181A2860347002B070BD8DF80500EEE7C2
S21400ADF0FFF7B8FE2B681844F3E700BFDA0C002014
S21400AE009C1B002073B5002401A88DF80440FDF7B4
S21400AE10CDF82046FFF7CEFF414A4249136F42481D
S21400AE2003F007030B60D2F80011404D01F0030158
S21400AE3001604FF400203E49032B48664FF4003073
S21400AE40486601F598318969C1F3400129705ED0E2
S21400AE50D2F8203103F00303981E43424341D2F850
S21400AE602421344C02F00702022A08BF43F00103F3
S21400AE704FF4C8702370FFF775FE2F4B2F4A1860EB
S21400AE800A2316682E49013B13F0FF0341F8040B12
S21400AE90F9D100EBC003304418442B781060294DDC
S21400AEA06BB323781E4A3BB9D2F8003103F0030394
S21400AEB0591E4B424B412370D2F8003103F0030376
S21400AEC0022B26D0032B27D0012B18D1FBF7F8FD39
S21400AED0A8B11D4B411EDC680023024608461946F1
S21400AEE0C4F30B04194E013404EB8404E4FB06019E
S21400AEF018F0ECF8FFF736FE2B68184428601F2081
S21400AF00FFF730FE2B681844286002B070BD01239E
S21400AF10A5E7FBF7EFFDDBE719F061FAD8E700BF1E
S21400AF2000800050641B0020581B0020DB270020F8
S21400AF3000900050DE270020981B00206C1B00208D
S21400AF40701B00209C1B002000C0015040420F00D8
S21400AF50074A0849D2F8203103F003030B60D2F801
S21400AF602431054A03F00703136019F0D1BB00BF74
S21400AF70008000505C1B0020601B00200E4B1A78DF
S21400AF80C2B100221A700D4B1A6F22F0070242F06F
S21400AF9001021A67D3F8202142F00302C3F82021E9
S21400AFA0D3F8242122F0070242F00302C3F824213A
S21400AFB0FBF770BD704700BFDC2700200080005004
S21400AFC008B5134B1B7813B302201AF050FBF0B1F0
S21400AFD000F064FAD8B10F4B9A6DD10302D5DA6D42
S21400AFE0920714D49B6DDB0711D401220A4B1A700A
S21400AFF01AF01CFB094B0A4A1860136F23F007036C
S21400B00043F003031367BDE80840FBF743BD08BDE4
S21400B010DE27002000C00050DD270020681B00202F
S21400B020008000500122014B1A707047DC27002078
S21400B030F8B51F4B1B78002B39D01E4C2378B3B9BC
S21400B0401D4B9A6DD10302D5DA6D92072FD49B6DF6
S21400B050DB072CD41AF0EAFA184B194A1860136F5B
S21400B06023F0070343F003031367FBF713FD1AF0FF
S21400B070DDFA124B134D1B68134EC01A2B78134F74
S21400B08056F8232046F82300111A3A681048521A38
S21400B0900A213A600932B2FBF1F20133DBB20260F8
S21400B0A0B3FBF1F201FB12332B7000232370F8BDC3
S21400B0B0DE270020DD27002000C00050681B00208F
S21400B0C000800050DA270020701B00206C1B002038
S21400B0D0981B002008B519F01DFB124B12491A6F79
S21400B0E0096822F007020A431A671049D3F820219C
S21400B0F0096822F003020A43C3F820210C49D3F85A
S21400B1002421096822F007020A43C3F82421094BC8
S21400B1101B7813B10122084B9A62BDE80840FBF782
S21400B120B9BC00BF00800050641B00205C1B0020E0
S21400B130601B0020DE27002000E0005002280AD016
S21400B14003280BD001280CD1064A136923F0040308
S21400B150136130BF70470020FCF782BE0020FCF76A
S21400B160A3BE704700ED00E0054B1B781BB1054BF6
S21400B1701B6803EBD303044A10681844704700BFEB
S21400B180DE270020981B00209C1B00200122014B7C
S21400B1901A707047DE270020014B1878704700BFF2
S21400B1A0DE27002010B51AF04FFA0A4C0A4B196831
S21400B1B02368C31A01B10BB9206010BD4A699A42D0
S21400B1C03ABF9B1A0022D21A4A6128BF0023896818
S21400B1D0F0E700BFA01B0020AC1B0020C38870B5A2
S21400B1E004460D463BB9FFF791FC8542064602D25F
S21400B1F01AF0C8F935460F4965610B68ABB90C60A3
S21400B200A36011E0AD1A9A68184665612AB1134624
S21400B2105A69AA42F6D950B11A4613468460A3600A
S21400B22013B15969491B596170BD0020F0E70C60E5
S21400B230F5E700BFAC1B002038B5134D2B685B69E3
S21400B24093B1124A022014681C441AF004FA2046ED
S21400B25000F06EFA00230E492A680B70D08880072B
S21400B26009D501230B7038BD02201AF0F4F902202C
S21400B27000F0A8FAEEE79268002AF4D0506903447A
S21400B280012BEBD9EFE700BFAC1B0020A01B002072
S21400B290E027002070B516469DF81420C0E9033656
S21400B2A00271049ABDF818300260002204460D466A
S21400B2B08260C38006BB1AF0C7F92844A0613DB976
S21400B2C0E368656113B120462168984796B1354614
S21400B2D019F00CFA0646FFF765FF29462046FFF7E9
S21400B2E07DFF074B1B68A34201D1FFF7A5FF304641
S21400B2F019F000FA002070BD1AF0A6F93044DDE718
S21400B300AC1B002000220C490B687BB183420AD19B
S21400B31083687AB1936083681BB15A6941690A44AD
S21400B3205A61002070471A469B68EEE70028EFD067
S21400B330022070470B60EEE7AC1B002070B519F0DA
S21400B340DCF9144E05463478FCB9134B1C60134BDD
S21400B3501C60134B1C8000F0A9F901201AF07BF941
S21400B3601AF094F90F4B0246186020B9284619F0D7
S21400B370CAF9232070BD234640F2E7310A4817F089
S21400B380A5FE0A4B186001233370284619F0BBF956
S21400B3900020EFE7DF270020AC1B0020A01B0020CA
S21400B3A04C270020A81B002018FCFFFFA41B002031
S21400B3B02DE9F0410546F8B119F098F90F4F064609
S21400B3C0FFF7F0FE2846D7F80080FFF79BFF0446FD
S21400B3D028B1304619F08EF92046BDE8F081A84520
S21400B3E03B6803D123B1FFF727FFF2E7002BF0D12C
S21400B3F0022000F0CFF9ECE72224EDE7AC1B00209A
S21400B40038B50C46054698B191B100230B7019F07B
S21400B41074F90121074B1B680BB122781AB119F099
S21400B42072F9002038BDAB4214BF9B682170F3E769
S21400B4302220F7E7AC1B00202DE9F041074688469E
S21400B44019F05BF900260546124B1C6824B92846FD
S21400B45019F059F91B2016E063691E44E388BB42C5
S21400B46015D11AF0F1F80C4C2368C01AB0420CD271
S21400B4701AF0EAF822683244121A2846C8F8002061
S21400B48019F041F90020BDE8F0810022F5E7A46834
S21400B490DCE700BFAC1B0020A01B002008B5074B54
S21400B4A0187848B11AF0C2F8054B1B689B69C01A99
S21400B4B002288CBF0020012008BD00BFE027002026
S21400B4C0AC1B0020014B1868704700BFA81B00206B
S21400B4D00C4B70B51B680D46834211D340F2E73122
S21400B4E000248C462146084B4FF47A721E680023CF
S21400B4F0E0FB06C1604617F0E9FD2860204670BDF7
S21400B5002120FCE7A41B0020A81B00200F4B10B531
S21400B5101A689AB14FF47A71531E1342A0FB0101C8
S21400B5200ED1B2FA82F2C2F11F04531CD243E0409D
S21400B53001FA03F3184321FA02F20243104610BD43
S21400B540002317F0C3FD0246F8E700BFA81B002043
S21400B550C2072DE9F04704460BD54B4A1388013342
S21400B5609BB21380FFF71EFE484B1B680BB1FFF71C
S21400B57063FEA30740F1858019F0BFF84FF000097D
S21400B58080464D46FFF70EFE4F46404E34680CB1DF
S21400B59063698BB100223E4B012D1A7003D119F05E
S21400B5A0020F18BF1D70002C5BD0FFF745FE40460B
S21400B5B0BDE8F04719F0A7B823461A7921799142D9
S21400B5C088BF1C469B6813B15A69002AF5D04046CE
S21400B5D019F099F8D4F81090B9F1000F45D01AF088
S21400B5E033F8A269A0EB02084FEAE873C14577EB8F
S21400B5F003033BDA23691344A36101232269CAB11A
S21400B600C3B9A38BB9EB080833B1E28B13449BB2E2
S21400B610B3F57A7F1CD2E38319F06FF88146414672
S21400B6202046FFF7DBFDA369226948461344A36161
S21400B63019F069F8E368B4F80690013513B12046AE
S21400B6402168984719F059F88046FFF7ABFD9DE74B
S21400B650A3F57A73E383A36918F1FF38013BA3616E
S21400B660DAE7022000F096F8A1E7C84619F045F898
S21400B67082462046FFF746FE504619F044F800235F
S21400B680BCE7BDE8F08700BF4C270020AC1B0020BD
S21400B690E127002010B519F030F8034B1C7819F09C
S21400B6A032F8204610BD00BFE12700201FB5002459
S21400B6B01C4B012118689A880290D3F806009B7AE2
S21400B6C000903E20ADF80C208DF80430FCF778F89A
S21400B6D002A88DF808408DF80C40FCF781FE6946FC
S21400B6E001208DF80040FCF73FFE4FF0B04240F2DC
S21400B6F0FF31936923F47F7323F0030393610A4BAE
S21400B7005961936A13F00803FBD113620120FCF71A
S21400B71045FE4FF48052054BC3F880211A6004B0F2
S21400B72010BD00BF34F902000020005800E100E020
S21400B73010B5044618F0DAFF4FF0B042936A1907C6
S21400B740FCD4136A116C5269520604D4CA1A032A2E
S21400B75001D899420ED1E21A022A98BFDC1CB4F135
S21400B760FF3F38BF013C4FF0B0431C649A6942F07B
S21400B77040029A6118F0BEFF054A13783BB14FF0BD
S21400B780B041CB6B43F00203CB630023137010BDB4
S21400B790DB0C0020820700F001030AD50121084ACD
S21400B7A043F0400311704FF0B041CA6B22F0030221
S21400B7B0CA634FF0B0418A6922EA03038B6170477F
S21400B7C0DB0C0020830742BF4022014B5A617047C2
S21400B7D00010005810B518F090FF4FF0B043044624
S21400B7E05B695A06074A03F0010003F0510348BF9D
S21400B7F040F002005361FFF7ABFE2046BDE8104064
S21400B80018F081BF002000580A4B10B5D3F840321C
S21400B81003F00303013B012B0BD818F067FF044627
S21400B82001210220FFF7FAF82046BDE8104018F084
S21400B83061BF10BD00800050024A0349034800F073
S21400B8405BBD00BF40F902008CF9020064F90200FB
S21400B8500A4619B1024B00211B681847704700BF03
S21400B860080B00200E4B0340B3F1607F06D1B1F504
S21400B870885F14BF6FF0860000207047B3F1707FBA
S21400B8800BD101F4E043B3F5005F06D111F4E06F8D
S21400B8900CBF6FF08600002070476FF08600704780
S21400B8A00000C07F8A42F8B507460D4600F02181A9
S21400B8B09B4822F0FF01814210D09A4C22F4FF737D
S21400B8C023F00103A34209D0974B994206D097492B
